{
	"contracts/FundMe.sol": {
		"FundMe": {
			"abi": [
				{
					"inputs": [],
					"stateMutability": "nonpayable",
					"type": "constructor"
				},
				{
					"inputs": [],
					"name": "fund",
					"outputs": [],
					"stateMutability": "payable",
					"type": "function"
				},
				{
					"inputs": [
						{
							"internalType": "uint256",
							"name": "",
							"type": "uint256"
						}
					],
					"name": "funders",
					"outputs": [
						{
							"internalType": "address",
							"name": "",
							"type": "address"
						}
					],
					"stateMutability": "view",
					"type": "function"
				},
				{
					"inputs": [],
					"name": "withdraw",
					"outputs": [],
					"stateMutability": "nonpayable",
					"type": "function"
				}
			],
			"devdoc": {
				"kind": "dev",
				"methods": {},
				"version": 1
			},
			"evm": {
				"assembly": "    /* \"contracts/FundMe.sol\":200:1873  contract FundMe {... */\n  mstore(0x40, 0x80)\n    /* \"contracts/FundMe.sol\":287:296  50 * 1e18 */\n  0x02b5e3af16b1880000\n    /* \"contracts/FundMe.sol\":266:296  uint256 minimumUsd = 50 * 1e18 */\n  0x00\n  sstore\n    /* \"contracts/FundMe.sol\":412:463  constructor(){... */\n  callvalue\n  dup1\n  iszero\n  tag_1\n  jumpi\n  0x00\n  dup1\n  revert\ntag_1:\n  pop\n    /* \"contracts/FundMe.sol\":444:454  msg.sender */\n  caller\n    /* \"contracts/FundMe.sol\":436:441  owner */\n  0x01\n  0x00\n    /* \"contracts/FundMe.sol\":436:454  owner = msg.sender */\n  0x0100\n  exp\n  dup2\n  sload\n  dup2\n  0xffffffffffffffffffffffffffffffffffffffff\n  mul\n  not\n  and\n  swap1\n  dup4\n  0xffffffffffffffffffffffffffffffffffffffff\n  and\n  mul\n  or\n  swap1\n  sstore\n  pop\n    /* \"contracts/FundMe.sol\":200:1873  contract FundMe {... */\n  dataSize(sub_0)\n  dup1\n  dataOffset(sub_0)\n  0x00\n  codecopy\n  0x00\n  return\nstop\n\nsub_0: assembly {\n        /* \"contracts/FundMe.sol\":200:1873  contract FundMe {... */\n      mstore(0x40, 0x80)\n      jumpi(tag_1, lt(calldatasize, 0x04))\n      shr(0xe0, calldataload(0x00))\n      dup1\n      0x3ccfd60b\n      eq\n      tag_2\n      jumpi\n      dup1\n      0xb60d4288\n      eq\n      tag_3\n      jumpi\n      dup1\n      0xdc0d3dff\n      eq\n      tag_4\n      jumpi\n    tag_1:\n      0x00\n      dup1\n      revert\n        /* \"contracts/FundMe.sol\":886:1753  function withdraw() public onlyOwner{... */\n    tag_2:\n      callvalue\n      dup1\n      iszero\n      tag_5\n      jumpi\n      0x00\n      dup1\n      revert\n    tag_5:\n      pop\n      tag_6\n      tag_7\n      jump\t// in\n    tag_6:\n      stop\n        /* \"contracts/FundMe.sol\":473:874  function fund() public payable {... */\n    tag_3:\n      tag_8\n      tag_9\n      jump\t// in\n    tag_8:\n      stop\n        /* \"contracts/FundMe.sol\":323:347  address[] public funders */\n    tag_4:\n      callvalue\n      dup1\n      iszero\n      tag_10\n      jumpi\n      0x00\n      dup1\n      revert\n    tag_10:\n      pop\n      tag_11\n      0x04\n      dup1\n      calldatasize\n      sub\n      dup2\n      add\n      swap1\n      tag_12\n      swap2\n      swap1\n      tag_13\n      jump\t// in\n    tag_12:\n      tag_14\n      jump\t// in\n    tag_11:\n      mload(0x40)\n      tag_15\n      swap2\n      swap1\n      tag_16\n      jump\t// in\n    tag_15:\n      mload(0x40)\n      dup1\n      swap2\n      sub\n      swap1\n      return\n        /* \"contracts/FundMe.sol\":886:1753  function withdraw() public onlyOwner{... */\n    tag_7:\n        /* \"contracts/FundMe.sol\":1813:1818  owner */\n      0x01\n      0x00\n      swap1\n      sload\n      swap1\n      0x0100\n      exp\n      swap1\n      div\n      0xffffffffffffffffffffffffffffffffffffffff\n      and\n        /* \"contracts/FundMe.sol\":1799:1818  msg.sender == owner */\n      0xffffffffffffffffffffffffffffffffffffffff\n      and\n        /* \"contracts/FundMe.sol\":1799:1809  msg.sender */\n      caller\n        /* \"contracts/FundMe.sol\":1799:1818  msg.sender == owner */\n      0xffffffffffffffffffffffffffffffffffffffff\n      and\n      eq\n        /* \"contracts/FundMe.sol\":1791:1850  require(msg.sender == owner, \"ONLY THE OWNER CAN WITHDRAW\") */\n      tag_18\n      jumpi\n      mload(0x40)\n      0x08c379a000000000000000000000000000000000000000000000000000000000\n      dup2\n      mstore\n      0x04\n      add\n      tag_19\n      swap1\n      tag_20\n      jump\t// in\n    tag_19:\n      mload(0x40)\n      dup1\n      swap2\n      sub\n      swap1\n      revert\n    tag_18:\n        /* \"contracts/FundMe.sol\":937:956  uint256 funderIndex */\n      0x00\n        /* \"contracts/FundMe.sol\":933:1118  for(uint256 funderIndex = 0; funderIndex < funders.length; funderIndex++){... */\n    tag_22:\n        /* \"contracts/FundMe.sol\":976:983  funders */\n      0x02\n        /* \"contracts/FundMe.sol\":976:990  funders.length */\n      dup1\n      sload\n      swap1\n      pop\n        /* \"contracts/FundMe.sol\":962:973  funderIndex */\n      dup2\n        /* \"contracts/FundMe.sol\":962:990  funderIndex < funders.length */\n      lt\n        /* \"contracts/FundMe.sol\":933:1118  for(uint256 funderIndex = 0; funderIndex < funders.length; funderIndex++){... */\n      iszero\n      tag_23\n      jumpi\n        /* \"contracts/FundMe.sol\":1021:1035  address funder */\n      0x00\n        /* \"contracts/FundMe.sol\":1038:1045  funders */\n      0x02\n        /* \"contracts/FundMe.sol\":1046:1057  funderIndex */\n      dup3\n        /* \"contracts/FundMe.sol\":1038:1058  funders[funderIndex] */\n      dup2\n      sload\n      dup2\n      lt\n      tag_25\n      jumpi\n      tag_26\n      tag_27\n      jump\t// in\n    tag_26:\n    tag_25:\n      swap1\n      0x00\n      mstore\n      keccak256(0x00, 0x20)\n      add\n      0x00\n      swap1\n      sload\n      swap1\n      0x0100\n      exp\n      swap1\n      div\n      0xffffffffffffffffffffffffffffffffffffffff\n      and\n        /* \"contracts/FundMe.sol\":1021:1058  address funder = funders[funderIndex] */\n      swap1\n      pop\n        /* \"contracts/FundMe.sol\":1105:1106  0 */\n      0x00\n        /* \"contracts/FundMe.sol\":1073:1094  addressToAmountFunded */\n      0x03\n        /* \"contracts/FundMe.sol\":1073:1102  addressToAmountFunded[funder] */\n      0x00\n        /* \"contracts/FundMe.sol\":1095:1101  funder */\n      dup4\n        /* \"contracts/FundMe.sol\":1073:1102  addressToAmountFunded[funder] */\n      0xffffffffffffffffffffffffffffffffffffffff\n      and\n      0xffffffffffffffffffffffffffffffffffffffff\n      and\n      dup2\n      mstore\n      0x20\n      add\n      swap1\n      dup2\n      mstore\n      0x20\n      add\n      0x00\n      keccak256\n        /* \"contracts/FundMe.sol\":1073:1106  addressToAmountFunded[funder] = 0 */\n      dup2\n      swap1\n      sstore\n      pop\n        /* \"contracts/FundMe.sol\":1006:1118  {... */\n      pop\n        /* \"contracts/FundMe.sol\":992:1005  funderIndex++ */\n      dup1\n      dup1\n      tag_29\n      swap1\n      tag_30\n      jump\t// in\n    tag_29:\n      swap2\n      pop\n      pop\n        /* \"contracts/FundMe.sol\":933:1118  for(uint256 funderIndex = 0; funderIndex < funders.length; funderIndex++){... */\n      jump(tag_22)\n    tag_23:\n      pop\n        /* \"contracts/FundMe.sol\":1152:1153  0 */\n      0x00\n        /* \"contracts/FundMe.sol\":1138:1154  new address[](0) */\n      0xffffffffffffffff\n      dup2\n      gt\n      iszero\n      tag_31\n      jumpi\n      tag_32\n      tag_33\n      jump\t// in\n    tag_32:\n    tag_31:\n      mload(0x40)\n      swap1\n      dup1\n      dup3\n      mstore\n      dup1\n      0x20\n      mul\n      0x20\n      add\n      dup3\n      add\n      0x40\n      mstore\n      dup1\n      iszero\n      tag_34\n      jumpi\n      dup2\n      0x20\n      add\n      0x20\n      dup3\n      mul\n      dup1\n      calldatasize\n      dup4\n      calldatacopy\n      dup1\n      dup3\n      add\n      swap2\n      pop\n      pop\n      swap1\n      pop\n    tag_34:\n      pop\n        /* \"contracts/FundMe.sol\":1128:1135  funders */\n      0x02\n        /* \"contracts/FundMe.sol\":1128:1154  funders = new address[](0) */\n      swap1\n      dup1\n      mload\n      swap1\n      0x20\n      add\n      swap1\n      tag_35\n      swap3\n      swap2\n      swap1\n      tag_36\n      jump\t// in\n    tag_35:\n      pop\n        /* \"contracts/FundMe.sol\":1595:1612  bool callResponse */\n      0x00\n        /* \"contracts/FundMe.sol\":1625:1635  msg.sender */\n      caller\n        /* \"contracts/FundMe.sol\":1617:1641  payable(msg.sender).call */\n      0xffffffffffffffffffffffffffffffffffffffff\n      and\n        /* \"contracts/FundMe.sol\":1649:1670  address(this).balance */\n      selfbalance\n        /* \"contracts/FundMe.sol\":1617:1675  payable(msg.sender).call{value: address(this).balance}(\"\") */\n      mload(0x40)\n      tag_37\n      swap1\n      tag_38\n      jump\t// in\n    tag_37:\n      0x00\n      mload(0x40)\n      dup1\n      dup4\n      sub\n      dup2\n      dup6\n      dup8\n      gas\n      call\n      swap3\n      pop\n      pop\n      pop\n      returndatasize\n      dup1\n      0x00\n      dup2\n      eq\n      tag_41\n      jumpi\n      mload(0x40)\n      swap2\n      pop\n      and(add(returndatasize, 0x3f), not(0x1f))\n      dup3\n      add\n      0x40\n      mstore\n      returndatasize\n      dup3\n      mstore\n      returndatasize\n      0x00\n      0x20\n      dup5\n      add\n      returndatacopy\n      jump(tag_40)\n    tag_41:\n      0x60\n      swap2\n      pop\n    tag_40:\n      pop\n        /* \"contracts/FundMe.sol\":1594:1675  (bool callResponse,) = payable(msg.sender).call{value: address(this).balance}(\"\") */\n      pop\n      swap1\n      pop\n        /* \"contracts/FundMe.sol\":1694:1706  callResponse */\n      dup1\n        /* \"contracts/FundMe.sol\":1686:1745  require(callResponse, \"Failed to withdraw funds with call\") */\n      tag_42\n      jumpi\n      mload(0x40)\n      0x08c379a000000000000000000000000000000000000000000000000000000000\n      dup2\n      mstore\n      0x04\n      add\n      tag_43\n      swap1\n      tag_44\n      jump\t// in\n    tag_43:\n      mload(0x40)\n      dup1\n      swap2\n      sub\n      swap1\n      revert\n    tag_42:\n        /* \"contracts/FundMe.sol\":922:1753  {... */\n      pop\n        /* \"contracts/FundMe.sol\":886:1753  function withdraw() public onlyOwner{... */\n      jump\t// out\n        /* \"contracts/FundMe.sol\":473:874  function fund() public payable {... */\n    tag_9:\n        /* \"contracts/FundMe.sol\":738:748  minimumUsd */\n      sload(0x00)\n        /* \"contracts/FundMe.sol\":706:735  msg.value.getConversionRate() */\n      tag_46\n        /* \"contracts/FundMe.sol\":706:715  msg.value */\n      callvalue\n        /* \"contracts/FundMe.sol\":706:733  msg.value.getConversionRate */\n      tag_47\n        /* \"contracts/FundMe.sol\":706:735  msg.value.getConversionRate() */\n      jump\t// in\n    tag_46:\n        /* \"contracts/FundMe.sol\":706:748  msg.value.getConversionRate() > minimumUsd */\n      gt\n        /* \"contracts/FundMe.sol\":698:775  require(msg.value.getConversionRate() > minimumUsd, \"Didn't send enough ETH\") */\n      tag_48\n      jumpi\n      mload(0x40)\n      0x08c379a000000000000000000000000000000000000000000000000000000000\n      dup2\n      mstore\n      0x04\n      add\n      tag_49\n      swap1\n      tag_50\n      jump\t// in\n    tag_49:\n      mload(0x40)\n      dup1\n      swap2\n      sub\n      swap1\n      revert\n    tag_48:\n        /* \"contracts/FundMe.sol\":786:793  funders */\n      0x02\n        /* \"contracts/FundMe.sol\":799:809  msg.sender */\n      caller\n        /* \"contracts/FundMe.sol\":786:810  funders.push(msg.sender) */\n      swap1\n      dup1\n      0x01\n      dup2\n      sload\n      add\n      dup1\n      dup3\n      sstore\n      dup1\n      swap2\n      pop\n      pop\n      0x01\n      swap1\n      sub\n      swap1\n      0x00\n      mstore\n      keccak256(0x00, 0x20)\n      add\n      0x00\n      swap1\n      swap2\n      swap1\n      swap2\n      swap1\n      swap2\n      0x0100\n      exp\n      dup2\n      sload\n      dup2\n      0xffffffffffffffffffffffffffffffffffffffff\n      mul\n      not\n      and\n      swap1\n      dup4\n      0xffffffffffffffffffffffffffffffffffffffff\n      and\n      mul\n      or\n      swap1\n      sstore\n      pop\n        /* \"contracts/FundMe.sol\":857:866  msg.value */\n      callvalue\n        /* \"contracts/FundMe.sol\":821:842  addressToAmountFunded */\n      0x03\n        /* \"contracts/FundMe.sol\":821:854  addressToAmountFunded[msg.sender] */\n      0x00\n        /* \"contracts/FundMe.sol\":843:853  msg.sender */\n      caller\n        /* \"contracts/FundMe.sol\":821:854  addressToAmountFunded[msg.sender] */\n      0xffffffffffffffffffffffffffffffffffffffff\n      and\n      0xffffffffffffffffffffffffffffffffffffffff\n      and\n      dup2\n      mstore\n      0x20\n      add\n      swap1\n      dup2\n      mstore\n      0x20\n      add\n      0x00\n      keccak256\n        /* \"contracts/FundMe.sol\":821:866  addressToAmountFunded[msg.sender] = msg.value */\n      dup2\n      swap1\n      sstore\n      pop\n        /* \"contracts/FundMe.sol\":473:874  function fund() public payable {... */\n      jump\t// out\n        /* \"contracts/FundMe.sol\":323:347  address[] public funders */\n    tag_14:\n      0x02\n      dup2\n      dup2\n      sload\n      dup2\n      lt\n      tag_52\n      jumpi\n      0x00\n      dup1\n      revert\n    tag_52:\n      swap1\n      0x00\n      mstore\n      keccak256(0x00, 0x20)\n      add\n      0x00\n      swap2\n      pop\n      sload\n      swap1\n      0x0100\n      exp\n      swap1\n      div\n      0xffffffffffffffffffffffffffffffffffffffff\n      and\n      dup2\n      jump\t// out\n        /* \"contracts/PriceConverter.sol\":581:802  function getConversionRate(uint256 ethAmount) internal view returns(uint256){... */\n    tag_47:\n        /* \"contracts/PriceConverter.sol\":649:656  uint256 */\n      0x00\n        /* \"contracts/PriceConverter.sol\":668:684  uint256 ethPrice */\n      dup1\n        /* \"contracts/PriceConverter.sol\":687:697  getPrice() */\n      tag_55\n        /* \"contracts/PriceConverter.sol\":687:695  getPrice */\n      tag_56\n        /* \"contracts/PriceConverter.sol\":687:697  getPrice() */\n      jump\t// in\n    tag_55:\n        /* \"contracts/PriceConverter.sol\":668:697  uint256 ethPrice = getPrice() */\n      swap1\n      pop\n        /* \"contracts/PriceConverter.sol\":708:730  uint256 ethAmountInUsd */\n      0x00\n        /* \"contracts/PriceConverter.sol\":758:762  1e18 */\n      0x0de0b6b3a7640000\n        /* \"contracts/PriceConverter.sol\":745:754  ethAmount */\n      dup5\n        /* \"contracts/PriceConverter.sol\":734:742  ethPrice */\n      dup4\n        /* \"contracts/PriceConverter.sol\":734:754  ethPrice * ethAmount */\n      tag_57\n      swap2\n      swap1\n      tag_58\n      jump\t// in\n    tag_57:\n        /* \"contracts/PriceConverter.sol\":733:762  (ethPrice * ethAmount) / 1e18 */\n      tag_59\n      swap2\n      swap1\n      tag_60\n      jump\t// in\n    tag_59:\n        /* \"contracts/PriceConverter.sol\":708:762  uint256 ethAmountInUsd = (ethPrice * ethAmount) / 1e18 */\n      swap1\n      pop\n        /* \"contracts/PriceConverter.sol\":780:794  ethAmountInUsd */\n      dup1\n        /* \"contracts/PriceConverter.sol\":773:794  return ethAmountInUsd */\n      swap3\n      pop\n      pop\n      pop\n        /* \"contracts/PriceConverter.sol\":581:802  function getConversionRate(uint256 ethAmount) internal view returns(uint256){... */\n      swap2\n      swap1\n      pop\n      jump\t// out\n        /* \"contracts/PriceConverter.sol\":172:573  function getPrice() internal view returns(uint256) {... */\n    tag_56:\n        /* \"contracts/PriceConverter.sol\":214:221  uint256 */\n      0x00\n        /* \"contracts/PriceConverter.sol\":314:345  AggregatorV3Interface priceFeed */\n      dup1\n        /* \"contracts/PriceConverter.sol\":370:412  0xD4a33860578De61DBAbDc8BFdb98FD742fA7028e */\n      0xd4a33860578de61dbabdc8bfdb98fd742fa7028e\n        /* \"contracts/PriceConverter.sol\":314:413  AggregatorV3Interface priceFeed = AggregatorV3Interface(0xD4a33860578De61DBAbDc8BFdb98FD742fA7028e) */\n      swap1\n      pop\n        /* \"contracts/PriceConverter.sol\":476:488  int256 price */\n      0x00\n        /* \"contracts/PriceConverter.sol\":495:504  priceFeed */\n      dup2\n        /* \"contracts/PriceConverter.sol\":495:520  priceFeed.latestRoundData */\n      0xffffffffffffffffffffffffffffffffffffffff\n      and\n      0xfeaf968c\n        /* \"contracts/PriceConverter.sol\":495:522  priceFeed.latestRoundData() */\n      mload(0x40)\n      dup2\n      0xffffffff\n      and\n      0xe0\n      shl\n      dup2\n      mstore\n      0x04\n      add\n      0xa0\n      mload(0x40)\n      dup1\n      dup4\n      sub\n      dup2\n      dup7\n      gas\n      staticcall\n      iszero\n      dup1\n      iszero\n      tag_63\n      jumpi\n      returndatasize\n      0x00\n      dup1\n      returndatacopy\n      revert(0x00, returndatasize)\n    tag_63:\n      pop\n      pop\n      pop\n      pop\n      mload(0x40)\n      returndatasize\n      not(0x1f)\n      0x1f\n      dup3\n      add\n      and\n      dup3\n      add\n      dup1\n      0x40\n      mstore\n      pop\n      dup2\n      add\n      swap1\n      tag_64\n      swap2\n      swap1\n      tag_65\n      jump\t// in\n    tag_64:\n        /* \"contracts/PriceConverter.sol\":474:522  (,int256 price,,,) = priceFeed.latestRoundData() */\n      pop\n      pop\n      pop\n      swap2\n      pop\n      pop\n        /* \"contracts/PriceConverter.sol\":558:562  1e10 */\n      0x02540be400\n        /* \"contracts/PriceConverter.sol\":550:555  price */\n      dup2\n        /* \"contracts/PriceConverter.sol\":550:562  price * 1e10 */\n      tag_66\n      swap2\n      swap1\n      tag_67\n      jump\t// in\n    tag_66:\n        /* \"contracts/PriceConverter.sol\":535:563  return uint256(price * 1e10) */\n      swap3\n      pop\n      pop\n      pop\n        /* \"contracts/PriceConverter.sol\":172:573  function getPrice() internal view returns(uint256) {... */\n      swap1\n      jump\t// out\n    tag_36:\n      dup3\n      dup1\n      sload\n      dup3\n      dup3\n      sstore\n      swap1\n      0x00\n      mstore\n      keccak256(0x00, 0x20)\n      swap1\n      dup2\n      add\n      swap3\n      dup3\n      iszero\n      tag_68\n      jumpi\n      swap2\n      0x20\n      mul\n      dup3\n      add\n    tag_69:\n      dup3\n      dup2\n      gt\n      iszero\n      tag_70\n      jumpi\n      dup3\n      mload\n      dup3\n      exp(0x0100, 0x00)\n      dup2\n      sload\n      dup2\n      0xffffffffffffffffffffffffffffffffffffffff\n      mul\n      not\n      and\n      swap1\n      dup4\n      0xffffffffffffffffffffffffffffffffffffffff\n      and\n      mul\n      or\n      swap1\n      sstore\n      pop\n      swap2\n      0x20\n      add\n      swap2\n      swap1\n      0x01\n      add\n      swap1\n      jump(tag_69)\n    tag_70:\n    tag_68:\n      pop\n      swap1\n      pop\n      tag_71\n      swap2\n      swap1\n      tag_72\n      jump\t// in\n    tag_71:\n      pop\n      swap1\n      jump\t// out\n    tag_72:\n    tag_73:\n      dup1\n      dup3\n      gt\n      iszero\n      tag_74\n      jumpi\n      0x00\n      dup2\n      0x00\n      swap1\n      sstore\n      pop\n      0x01\n      add\n      jump(tag_73)\n    tag_74:\n      pop\n      swap1\n      jump\t// out\n        /* \"#utility.yul\":88:205   */\n    tag_76:\n        /* \"#utility.yul\":197:198   */\n      0x00\n        /* \"#utility.yul\":194:195   */\n      dup1\n        /* \"#utility.yul\":187:199   */\n      revert\n        /* \"#utility.yul\":334:411   */\n    tag_78:\n        /* \"#utility.yul\":371:378   */\n      0x00\n        /* \"#utility.yul\":400:405   */\n      dup2\n        /* \"#utility.yul\":389:405   */\n      swap1\n      pop\n        /* \"#utility.yul\":334:411   */\n      swap2\n      swap1\n      pop\n      jump\t// out\n        /* \"#utility.yul\":417:539   */\n    tag_79:\n        /* \"#utility.yul\":490:514   */\n      tag_109\n        /* \"#utility.yul\":508:513   */\n      dup2\n        /* \"#utility.yul\":490:514   */\n      tag_78\n      jump\t// in\n    tag_109:\n        /* \"#utility.yul\":483:488   */\n      dup2\n        /* \"#utility.yul\":480:515   */\n      eq\n        /* \"#utility.yul\":470:533   */\n      tag_110\n      jumpi\n        /* \"#utility.yul\":529:530   */\n      0x00\n        /* \"#utility.yul\":526:527   */\n      dup1\n        /* \"#utility.yul\":519:531   */\n      revert\n        /* \"#utility.yul\":470:533   */\n    tag_110:\n        /* \"#utility.yul\":417:539   */\n      pop\n      jump\t// out\n        /* \"#utility.yul\":545:684   */\n    tag_80:\n        /* \"#utility.yul\":591:596   */\n      0x00\n        /* \"#utility.yul\":629:635   */\n      dup2\n        /* \"#utility.yul\":616:636   */\n      calldataload\n        /* \"#utility.yul\":607:636   */\n      swap1\n      pop\n        /* \"#utility.yul\":645:678   */\n      tag_112\n        /* \"#utility.yul\":672:677   */\n      dup2\n        /* \"#utility.yul\":645:678   */\n      tag_79\n      jump\t// in\n    tag_112:\n        /* \"#utility.yul\":545:684   */\n      swap3\n      swap2\n      pop\n      pop\n      jump\t// out\n        /* \"#utility.yul\":690:1019   */\n    tag_13:\n        /* \"#utility.yul\":749:755   */\n      0x00\n        /* \"#utility.yul\":798:800   */\n      0x20\n        /* \"#utility.yul\":786:795   */\n      dup3\n        /* \"#utility.yul\":777:784   */\n      dup5\n        /* \"#utility.yul\":773:796   */\n      sub\n        /* \"#utility.yul\":769:801   */\n      slt\n        /* \"#utility.yul\":766:885   */\n      iszero\n      tag_114\n      jumpi\n        /* \"#utility.yul\":804:883   */\n      tag_115\n      tag_76\n      jump\t// in\n    tag_115:\n        /* \"#utility.yul\":766:885   */\n    tag_114:\n        /* \"#utility.yul\":924:925   */\n      0x00\n        /* \"#utility.yul\":949:1002   */\n      tag_116\n        /* \"#utility.yul\":994:1001   */\n      dup5\n        /* \"#utility.yul\":985:991   */\n      dup3\n        /* \"#utility.yul\":974:983   */\n      dup6\n        /* \"#utility.yul\":970:992   */\n      add\n        /* \"#utility.yul\":949:1002   */\n      tag_80\n      jump\t// in\n    tag_116:\n        /* \"#utility.yul\":939:1002   */\n      swap2\n      pop\n        /* \"#utility.yul\":895:1012   */\n      pop\n        /* \"#utility.yul\":690:1019   */\n      swap3\n      swap2\n      pop\n      pop\n      jump\t// out\n        /* \"#utility.yul\":1025:1151   */\n    tag_81:\n        /* \"#utility.yul\":1062:1069   */\n      0x00\n        /* \"#utility.yul\":1102:1144   */\n      0xffffffffffffffffffffffffffffffffffffffff\n        /* \"#utility.yul\":1095:1100   */\n      dup3\n        /* \"#utility.yul\":1091:1145   */\n      and\n        /* \"#utility.yul\":1080:1145   */\n      swap1\n      pop\n        /* \"#utility.yul\":1025:1151   */\n      swap2\n      swap1\n      pop\n      jump\t// out\n        /* \"#utility.yul\":1157:1253   */\n    tag_82:\n        /* \"#utility.yul\":1194:1201   */\n      0x00\n        /* \"#utility.yul\":1223:1247   */\n      tag_119\n        /* \"#utility.yul\":1241:1246   */\n      dup3\n        /* \"#utility.yul\":1223:1247   */\n      tag_81\n      jump\t// in\n    tag_119:\n        /* \"#utility.yul\":1212:1247   */\n      swap1\n      pop\n        /* \"#utility.yul\":1157:1253   */\n      swap2\n      swap1\n      pop\n      jump\t// out\n        /* \"#utility.yul\":1259:1377   */\n    tag_83:\n        /* \"#utility.yul\":1346:1370   */\n      tag_121\n        /* \"#utility.yul\":1364:1369   */\n      dup2\n        /* \"#utility.yul\":1346:1370   */\n      tag_82\n      jump\t// in\n    tag_121:\n        /* \"#utility.yul\":1341:1344   */\n      dup3\n        /* \"#utility.yul\":1334:1371   */\n      mstore\n        /* \"#utility.yul\":1259:1377   */\n      pop\n      pop\n      jump\t// out\n        /* \"#utility.yul\":1383:1605   */\n    tag_16:\n        /* \"#utility.yul\":1476:1480   */\n      0x00\n        /* \"#utility.yul\":1514:1516   */\n      0x20\n        /* \"#utility.yul\":1503:1512   */\n      dup3\n        /* \"#utility.yul\":1499:1517   */\n      add\n        /* \"#utility.yul\":1491:1517   */\n      swap1\n      pop\n        /* \"#utility.yul\":1527:1598   */\n      tag_123\n        /* \"#utility.yul\":1595:1596   */\n      0x00\n        /* \"#utility.yul\":1584:1593   */\n      dup4\n        /* \"#utility.yul\":1580:1597   */\n      add\n        /* \"#utility.yul\":1571:1577   */\n      dup5\n        /* \"#utility.yul\":1527:1598   */\n      tag_83\n      jump\t// in\n    tag_123:\n        /* \"#utility.yul\":1383:1605   */\n      swap3\n      swap2\n      pop\n      pop\n      jump\t// out\n        /* \"#utility.yul\":1611:1780   */\n    tag_84:\n        /* \"#utility.yul\":1695:1706   */\n      0x00\n        /* \"#utility.yul\":1729:1735   */\n      dup3\n        /* \"#utility.yul\":1724:1727   */\n      dup3\n        /* \"#utility.yul\":1717:1736   */\n      mstore\n        /* \"#utility.yul\":1769:1773   */\n      0x20\n        /* \"#utility.yul\":1764:1767   */\n      dup3\n        /* \"#utility.yul\":1760:1774   */\n      add\n        /* \"#utility.yul\":1745:1774   */\n      swap1\n      pop\n        /* \"#utility.yul\":1611:1780   */\n      swap3\n      swap2\n      pop\n      pop\n      jump\t// out\n        /* \"#utility.yul\":1786:1963   */\n    tag_85:\n        /* \"#utility.yul\":1926:1955   */\n      0x4f4e4c5920544845204f574e45522043414e2057495448445241570000000000\n        /* \"#utility.yul\":1922:1923   */\n      0x00\n        /* \"#utility.yul\":1914:1920   */\n      dup3\n        /* \"#utility.yul\":1910:1924   */\n      add\n        /* \"#utility.yul\":1903:1956   */\n      mstore\n        /* \"#utility.yul\":1786:1963   */\n      pop\n      jump\t// out\n        /* \"#utility.yul\":1969:2335   */\n    tag_86:\n        /* \"#utility.yul\":2111:2114   */\n      0x00\n        /* \"#utility.yul\":2132:2199   */\n      tag_127\n        /* \"#utility.yul\":2196:2198   */\n      0x1b\n        /* \"#utility.yul\":2191:2194   */\n      dup4\n        /* \"#utility.yul\":2132:2199   */\n      tag_84\n      jump\t// in\n    tag_127:\n        /* \"#utility.yul\":2125:2199   */\n      swap2\n      pop\n        /* \"#utility.yul\":2208:2301   */\n      tag_128\n        /* \"#utility.yul\":2297:2300   */\n      dup3\n        /* \"#utility.yul\":2208:2301   */\n      tag_85\n      jump\t// in\n    tag_128:\n        /* \"#utility.yul\":2326:2328   */\n      0x20\n        /* \"#utility.yul\":2321:2324   */\n      dup3\n        /* \"#utility.yul\":2317:2329   */\n      add\n        /* \"#utility.yul\":2310:2329   */\n      swap1\n      pop\n        /* \"#utility.yul\":1969:2335   */\n      swap2\n      swap1\n      pop\n      jump\t// out\n        /* \"#utility.yul\":2341:2760   */\n    tag_20:\n        /* \"#utility.yul\":2507:2511   */\n      0x00\n        /* \"#utility.yul\":2545:2547   */\n      0x20\n        /* \"#utility.yul\":2534:2543   */\n      dup3\n        /* \"#utility.yul\":2530:2548   */\n      add\n        /* \"#utility.yul\":2522:2548   */\n      swap1\n      pop\n        /* \"#utility.yul\":2594:2603   */\n      dup2\n        /* \"#utility.yul\":2588:2592   */\n      dup2\n        /* \"#utility.yul\":2584:2604   */\n      sub\n        /* \"#utility.yul\":2580:2581   */\n      0x00\n        /* \"#utility.yul\":2569:2578   */\n      dup4\n        /* \"#utility.yul\":2565:2582   */\n      add\n        /* \"#utility.yul\":2558:2605   */\n      mstore\n        /* \"#utility.yul\":2622:2753   */\n      tag_130\n        /* \"#utility.yul\":2748:2752   */\n      dup2\n        /* \"#utility.yul\":2622:2753   */\n      tag_86\n      jump\t// in\n    tag_130:\n        /* \"#utility.yul\":2614:2753   */\n      swap1\n      pop\n        /* \"#utility.yul\":2341:2760   */\n      swap2\n      swap1\n      pop\n      jump\t// out\n        /* \"#utility.yul\":2766:2946   */\n    tag_27:\n        /* \"#utility.yul\":2814:2891   */\n      0x4e487b7100000000000000000000000000000000000000000000000000000000\n        /* \"#utility.yul\":2811:2812   */\n      0x00\n        /* \"#utility.yul\":2804:2892   */\n      mstore\n        /* \"#utility.yul\":2911:2915   */\n      0x32\n        /* \"#utility.yul\":2908:2909   */\n      0x04\n        /* \"#utility.yul\":2901:2916   */\n      mstore\n        /* \"#utility.yul\":2935:2939   */\n      0x24\n        /* \"#utility.yul\":2932:2933   */\n      0x00\n        /* \"#utility.yul\":2925:2940   */\n      revert\n        /* \"#utility.yul\":2952:3132   */\n    tag_87:\n        /* \"#utility.yul\":3000:3077   */\n      0x4e487b7100000000000000000000000000000000000000000000000000000000\n        /* \"#utility.yul\":2997:2998   */\n      0x00\n        /* \"#utility.yul\":2990:3078   */\n      mstore\n        /* \"#utility.yul\":3097:3101   */\n      0x11\n        /* \"#utility.yul\":3094:3095   */\n      0x04\n        /* \"#utility.yul\":3087:3102   */\n      mstore\n        /* \"#utility.yul\":3121:3125   */\n      0x24\n        /* \"#utility.yul\":3118:3119   */\n      0x00\n        /* \"#utility.yul\":3111:3126   */\n      revert\n        /* \"#utility.yul\":3138:3371   */\n    tag_30:\n        /* \"#utility.yul\":3177:3180   */\n      0x00\n        /* \"#utility.yul\":3200:3224   */\n      tag_134\n        /* \"#utility.yul\":3218:3223   */\n      dup3\n        /* \"#utility.yul\":3200:3224   */\n      tag_78\n      jump\t// in\n    tag_134:\n        /* \"#utility.yul\":3191:3224   */\n      swap2\n      pop\n        /* \"#utility.yul\":3246:3312   */\n      0xffffffffffffffffffffffffffffffffffffffffffffffffffffffffffffffff\n        /* \"#utility.yul\":3239:3244   */\n      dup3\n        /* \"#utility.yul\":3236:3313   */\n      sub\n        /* \"#utility.yul\":3233:3336   */\n      tag_135\n      jumpi\n        /* \"#utility.yul\":3316:3334   */\n      tag_136\n      tag_87\n      jump\t// in\n    tag_136:\n        /* \"#utility.yul\":3233:3336   */\n    tag_135:\n        /* \"#utility.yul\":3363:3364   */\n      0x01\n        /* \"#utility.yul\":3356:3361   */\n      dup3\n        /* \"#utility.yul\":3352:3365   */\n      add\n        /* \"#utility.yul\":3345:3365   */\n      swap1\n      pop\n        /* \"#utility.yul\":3138:3371   */\n      swap2\n      swap1\n      pop\n      jump\t// out\n        /* \"#utility.yul\":3377:3557   */\n    tag_33:\n        /* \"#utility.yul\":3425:3502   */\n      0x4e487b7100000000000000000000000000000000000000000000000000000000\n        /* \"#utility.yul\":3422:3423   */\n      0x00\n        /* \"#utility.yul\":3415:3503   */\n      mstore\n        /* \"#utility.yul\":3522:3526   */\n      0x41\n        /* \"#utility.yul\":3519:3520   */\n      0x04\n        /* \"#utility.yul\":3512:3527   */\n      mstore\n        /* \"#utility.yul\":3546:3550   */\n      0x24\n        /* \"#utility.yul\":3543:3544   */\n      0x00\n        /* \"#utility.yul\":3536:3551   */\n      revert\n        /* \"#utility.yul\":3563:3710   */\n    tag_88:\n        /* \"#utility.yul\":3664:3675   */\n      0x00\n        /* \"#utility.yul\":3701:3704   */\n      dup2\n        /* \"#utility.yul\":3686:3704   */\n      swap1\n      pop\n        /* \"#utility.yul\":3563:3710   */\n      swap3\n      swap2\n      pop\n      pop\n      jump\t// out\n        /* \"#utility.yul\":3716:3830   */\n    tag_89:\n      pop\n      jump\t// out\n        /* \"#utility.yul\":3836:4234   */\n    tag_90:\n        /* \"#utility.yul\":3995:3998   */\n      0x00\n        /* \"#utility.yul\":4016:4099   */\n      tag_141\n        /* \"#utility.yul\":4097:4098   */\n      0x00\n        /* \"#utility.yul\":4092:4095   */\n      dup4\n        /* \"#utility.yul\":4016:4099   */\n      tag_88\n      jump\t// in\n    tag_141:\n        /* \"#utility.yul\":4009:4099   */\n      swap2\n      pop\n        /* \"#utility.yul\":4108:4201   */\n      tag_142\n        /* \"#utility.yul\":4197:4200   */\n      dup3\n        /* \"#utility.yul\":4108:4201   */\n      tag_89\n      jump\t// in\n    tag_142:\n        /* \"#utility.yul\":4226:4227   */\n      0x00\n        /* \"#utility.yul\":4221:4224   */\n      dup3\n        /* \"#utility.yul\":4217:4228   */\n      add\n        /* \"#utility.yul\":4210:4228   */\n      swap1\n      pop\n        /* \"#utility.yul\":3836:4234   */\n      swap2\n      swap1\n      pop\n      jump\t// out\n        /* \"#utility.yul\":4240:4619   */\n    tag_38:\n        /* \"#utility.yul\":4424:4427   */\n      0x00\n        /* \"#utility.yul\":4446:4593   */\n      tag_144\n        /* \"#utility.yul\":4589:4592   */\n      dup3\n        /* \"#utility.yul\":4446:4593   */\n      tag_90\n      jump\t// in\n    tag_144:\n        /* \"#utility.yul\":4439:4593   */\n      swap2\n      pop\n        /* \"#utility.yul\":4610:4613   */\n      dup2\n        /* \"#utility.yul\":4603:4613   */\n      swap1\n      pop\n        /* \"#utility.yul\":4240:4619   */\n      swap2\n      swap1\n      pop\n      jump\t// out\n        /* \"#utility.yul\":4625:4846   */\n    tag_91:\n        /* \"#utility.yul\":4765:4799   */\n      0x4661696c656420746f2077697468647261772066756e64732077697468206361\n        /* \"#utility.yul\":4761:4762   */\n      0x00\n        /* \"#utility.yul\":4753:4759   */\n      dup3\n        /* \"#utility.yul\":4749:4763   */\n      add\n        /* \"#utility.yul\":4742:4800   */\n      mstore\n        /* \"#utility.yul\":4834:4838   */\n      0x6c6c000000000000000000000000000000000000000000000000000000000000\n        /* \"#utility.yul\":4829:4831   */\n      0x20\n        /* \"#utility.yul\":4821:4827   */\n      dup3\n        /* \"#utility.yul\":4817:4832   */\n      add\n        /* \"#utility.yul\":4810:4839   */\n      mstore\n        /* \"#utility.yul\":4625:4846   */\n      pop\n      jump\t// out\n        /* \"#utility.yul\":4852:5218   */\n    tag_92:\n        /* \"#utility.yul\":4994:4997   */\n      0x00\n        /* \"#utility.yul\":5015:5082   */\n      tag_147\n        /* \"#utility.yul\":5079:5081   */\n      0x22\n        /* \"#utility.yul\":5074:5077   */\n      dup4\n        /* \"#utility.yul\":5015:5082   */\n      tag_84\n      jump\t// in\n    tag_147:\n        /* \"#utility.yul\":5008:5082   */\n      swap2\n      pop\n        /* \"#utility.yul\":5091:5184   */\n      tag_148\n        /* \"#utility.yul\":5180:5183   */\n      dup3\n        /* \"#utility.yul\":5091:5184   */\n      tag_91\n      jump\t// in\n    tag_148:\n        /* \"#utility.yul\":5209:5211   */\n      0x40\n        /* \"#utility.yul\":5204:5207   */\n      dup3\n        /* \"#utility.yul\":5200:5212   */\n      add\n        /* \"#utility.yul\":5193:5212   */\n      swap1\n      pop\n        /* \"#utility.yul\":4852:5218   */\n      swap2\n      swap1\n      pop\n      jump\t// out\n        /* \"#utility.yul\":5224:5643   */\n    tag_44:\n        /* \"#utility.yul\":5390:5394   */\n      0x00\n        /* \"#utility.yul\":5428:5430   */\n      0x20\n        /* \"#utility.yul\":5417:5426   */\n      dup3\n        /* \"#utility.yul\":5413:5431   */\n      add\n        /* \"#utility.yul\":5405:5431   */\n      swap1\n      pop\n        /* \"#utility.yul\":5477:5486   */\n      dup2\n        /* \"#utility.yul\":5471:5475   */\n      dup2\n        /* \"#utility.yul\":5467:5487   */\n      sub\n        /* \"#utility.yul\":5463:5464   */\n      0x00\n        /* \"#utility.yul\":5452:5461   */\n      dup4\n        /* \"#utility.yul\":5448:5465   */\n      add\n        /* \"#utility.yul\":5441:5488   */\n      mstore\n        /* \"#utility.yul\":5505:5636   */\n      tag_150\n        /* \"#utility.yul\":5631:5635   */\n      dup2\n        /* \"#utility.yul\":5505:5636   */\n      tag_92\n      jump\t// in\n    tag_150:\n        /* \"#utility.yul\":5497:5636   */\n      swap1\n      pop\n        /* \"#utility.yul\":5224:5643   */\n      swap2\n      swap1\n      pop\n      jump\t// out\n        /* \"#utility.yul\":5649:5821   */\n    tag_93:\n        /* \"#utility.yul\":5789:5813   */\n      0x4469646e27742073656e6420656e6f7567682045544800000000000000000000\n        /* \"#utility.yul\":5785:5786   */\n      0x00\n        /* \"#utility.yul\":5777:5783   */\n      dup3\n        /* \"#utility.yul\":5773:5787   */\n      add\n        /* \"#utility.yul\":5766:5814   */\n      mstore\n        /* \"#utility.yul\":5649:5821   */\n      pop\n      jump\t// out\n        /* \"#utility.yul\":5827:6193   */\n    tag_94:\n        /* \"#utility.yul\":5969:5972   */\n      0x00\n        /* \"#utility.yul\":5990:6057   */\n      tag_153\n        /* \"#utility.yul\":6054:6056   */\n      0x16\n        /* \"#utility.yul\":6049:6052   */\n      dup4\n        /* \"#utility.yul\":5990:6057   */\n      tag_84\n      jump\t// in\n    tag_153:\n        /* \"#utility.yul\":5983:6057   */\n      swap2\n      pop\n        /* \"#utility.yul\":6066:6159   */\n      tag_154\n        /* \"#utility.yul\":6155:6158   */\n      dup3\n        /* \"#utility.yul\":6066:6159   */\n      tag_93\n      jump\t// in\n    tag_154:\n        /* \"#utility.yul\":6184:6186   */\n      0x20\n        /* \"#utility.yul\":6179:6182   */\n      dup3\n        /* \"#utility.yul\":6175:6187   */\n      add\n        /* \"#utility.yul\":6168:6187   */\n      swap1\n      pop\n        /* \"#utility.yul\":5827:6193   */\n      swap2\n      swap1\n      pop\n      jump\t// out\n        /* \"#utility.yul\":6199:6618   */\n    tag_50:\n        /* \"#utility.yul\":6365:6369   */\n      0x00\n        /* \"#utility.yul\":6403:6405   */\n      0x20\n        /* \"#utility.yul\":6392:6401   */\n      dup3\n        /* \"#utility.yul\":6388:6406   */\n      add\n        /* \"#utility.yul\":6380:6406   */\n      swap1\n      pop\n        /* \"#utility.yul\":6452:6461   */\n      dup2\n        /* \"#utility.yul\":6446:6450   */\n      dup2\n        /* \"#utility.yul\":6442:6462   */\n      sub\n        /* \"#utility.yul\":6438:6439   */\n      0x00\n        /* \"#utility.yul\":6427:6436   */\n      dup4\n        /* \"#utility.yul\":6423:6440   */\n      add\n        /* \"#utility.yul\":6416:6463   */\n      mstore\n        /* \"#utility.yul\":6480:6611   */\n      tag_156\n        /* \"#utility.yul\":6606:6610   */\n      dup2\n        /* \"#utility.yul\":6480:6611   */\n      tag_94\n      jump\t// in\n    tag_156:\n        /* \"#utility.yul\":6472:6611   */\n      swap1\n      pop\n        /* \"#utility.yul\":6199:6618   */\n      swap2\n      swap1\n      pop\n      jump\t// out\n        /* \"#utility.yul\":6624:7034   */\n    tag_58:\n        /* \"#utility.yul\":6664:6671   */\n      0x00\n        /* \"#utility.yul\":6687:6707   */\n      tag_158\n        /* \"#utility.yul\":6705:6706   */\n      dup3\n        /* \"#utility.yul\":6687:6707   */\n      tag_78\n      jump\t// in\n    tag_158:\n        /* \"#utility.yul\":6682:6707   */\n      swap2\n      pop\n        /* \"#utility.yul\":6721:6741   */\n      tag_159\n        /* \"#utility.yul\":6739:6740   */\n      dup4\n        /* \"#utility.yul\":6721:6741   */\n      tag_78\n      jump\t// in\n    tag_159:\n        /* \"#utility.yul\":6716:6741   */\n      swap3\n      pop\n        /* \"#utility.yul\":6776:6777   */\n      dup3\n        /* \"#utility.yul\":6773:6774   */\n      dup3\n        /* \"#utility.yul\":6769:6778   */\n      mul\n        /* \"#utility.yul\":6798:6828   */\n      tag_160\n        /* \"#utility.yul\":6816:6827   */\n      dup2\n        /* \"#utility.yul\":6798:6828   */\n      tag_78\n      jump\t// in\n    tag_160:\n        /* \"#utility.yul\":6787:6828   */\n      swap2\n      pop\n        /* \"#utility.yul\":6977:6978   */\n      dup3\n        /* \"#utility.yul\":6968:6975   */\n      dup3\n        /* \"#utility.yul\":6964:6979   */\n      div\n        /* \"#utility.yul\":6961:6962   */\n      dup5\n        /* \"#utility.yul\":6958:6980   */\n      eq\n        /* \"#utility.yul\":6938:6939   */\n      dup4\n        /* \"#utility.yul\":6931:6940   */\n      iszero\n        /* \"#utility.yul\":6911:6994   */\n      or\n        /* \"#utility.yul\":6888:7027   */\n      tag_161\n      jumpi\n        /* \"#utility.yul\":7007:7025   */\n      tag_162\n      tag_87\n      jump\t// in\n    tag_162:\n        /* \"#utility.yul\":6888:7027   */\n    tag_161:\n        /* \"#utility.yul\":6672:7034   */\n      pop\n        /* \"#utility.yul\":6624:7034   */\n      swap3\n      swap2\n      pop\n      pop\n      jump\t// out\n        /* \"#utility.yul\":7040:7220   */\n    tag_95:\n        /* \"#utility.yul\":7088:7165   */\n      0x4e487b7100000000000000000000000000000000000000000000000000000000\n        /* \"#utility.yul\":7085:7086   */\n      0x00\n        /* \"#utility.yul\":7078:7166   */\n      mstore\n        /* \"#utility.yul\":7185:7189   */\n      0x12\n        /* \"#utility.yul\":7182:7183   */\n      0x04\n        /* \"#utility.yul\":7175:7190   */\n      mstore\n        /* \"#utility.yul\":7209:7213   */\n      0x24\n        /* \"#utility.yul\":7206:7207   */\n      0x00\n        /* \"#utility.yul\":7199:7214   */\n      revert\n        /* \"#utility.yul\":7226:7411   */\n    tag_60:\n        /* \"#utility.yul\":7266:7267   */\n      0x00\n        /* \"#utility.yul\":7283:7303   */\n      tag_165\n        /* \"#utility.yul\":7301:7302   */\n      dup3\n        /* \"#utility.yul\":7283:7303   */\n      tag_78\n      jump\t// in\n    tag_165:\n        /* \"#utility.yul\":7278:7303   */\n      swap2\n      pop\n        /* \"#utility.yul\":7317:7337   */\n      tag_166\n        /* \"#utility.yul\":7335:7336   */\n      dup4\n        /* \"#utility.yul\":7317:7337   */\n      tag_78\n      jump\t// in\n    tag_166:\n        /* \"#utility.yul\":7312:7337   */\n      swap3\n      pop\n        /* \"#utility.yul\":7356:7357   */\n      dup3\n        /* \"#utility.yul\":7346:7381   */\n      tag_167\n      jumpi\n        /* \"#utility.yul\":7361:7379   */\n      tag_168\n      tag_95\n      jump\t// in\n    tag_168:\n        /* \"#utility.yul\":7346:7381   */\n    tag_167:\n        /* \"#utility.yul\":7403:7404   */\n      dup3\n        /* \"#utility.yul\":7400:7401   */\n      dup3\n        /* \"#utility.yul\":7396:7405   */\n      div\n        /* \"#utility.yul\":7391:7405   */\n      swap1\n      pop\n        /* \"#utility.yul\":7226:7411   */\n      swap3\n      swap2\n      pop\n      pop\n      jump\t// out\n        /* \"#utility.yul\":7417:7522   */\n    tag_96:\n        /* \"#utility.yul\":7453:7460   */\n      0x00\n        /* \"#utility.yul\":7493:7515   */\n      0xffffffffffffffffffff\n        /* \"#utility.yul\":7486:7491   */\n      dup3\n        /* \"#utility.yul\":7482:7516   */\n      and\n        /* \"#utility.yul\":7471:7516   */\n      swap1\n      pop\n        /* \"#utility.yul\":7417:7522   */\n      swap2\n      swap1\n      pop\n      jump\t// out\n        /* \"#utility.yul\":7528:7648   */\n    tag_97:\n        /* \"#utility.yul\":7600:7623   */\n      tag_171\n        /* \"#utility.yul\":7617:7622   */\n      dup2\n        /* \"#utility.yul\":7600:7623   */\n      tag_96\n      jump\t// in\n    tag_171:\n        /* \"#utility.yul\":7593:7598   */\n      dup2\n        /* \"#utility.yul\":7590:7624   */\n      eq\n        /* \"#utility.yul\":7580:7642   */\n      tag_172\n      jumpi\n        /* \"#utility.yul\":7638:7639   */\n      0x00\n        /* \"#utility.yul\":7635:7636   */\n      dup1\n        /* \"#utility.yul\":7628:7640   */\n      revert\n        /* \"#utility.yul\":7580:7642   */\n    tag_172:\n        /* \"#utility.yul\":7528:7648   */\n      pop\n      jump\t// out\n        /* \"#utility.yul\":7654:7795   */\n    tag_98:\n        /* \"#utility.yul\":7710:7715   */\n      0x00\n        /* \"#utility.yul\":7741:7747   */\n      dup2\n        /* \"#utility.yul\":7735:7748   */\n      mload\n        /* \"#utility.yul\":7726:7748   */\n      swap1\n      pop\n        /* \"#utility.yul\":7757:7789   */\n      tag_174\n        /* \"#utility.yul\":7783:7788   */\n      dup2\n        /* \"#utility.yul\":7757:7789   */\n      tag_97\n      jump\t// in\n    tag_174:\n        /* \"#utility.yul\":7654:7795   */\n      swap3\n      swap2\n      pop\n      pop\n      jump\t// out\n        /* \"#utility.yul\":7801:7877   */\n    tag_99:\n        /* \"#utility.yul\":7837:7844   */\n      0x00\n        /* \"#utility.yul\":7866:7871   */\n      dup2\n        /* \"#utility.yul\":7855:7871   */\n      swap1\n      pop\n        /* \"#utility.yul\":7801:7877   */\n      swap2\n      swap1\n      pop\n      jump\t// out\n        /* \"#utility.yul\":7883:8003   */\n    tag_100:\n        /* \"#utility.yul\":7955:7978   */\n      tag_177\n        /* \"#utility.yul\":7972:7977   */\n      dup2\n        /* \"#utility.yul\":7955:7978   */\n      tag_99\n      jump\t// in\n    tag_177:\n        /* \"#utility.yul\":7948:7953   */\n      dup2\n        /* \"#utility.yul\":7945:7979   */\n      eq\n        /* \"#utility.yul\":7935:7997   */\n      tag_178\n      jumpi\n        /* \"#utility.yul\":7993:7994   */\n      0x00\n        /* \"#utility.yul\":7990:7991   */\n      dup1\n        /* \"#utility.yul\":7983:7995   */\n      revert\n        /* \"#utility.yul\":7935:7997   */\n    tag_178:\n        /* \"#utility.yul\":7883:8003   */\n      pop\n      jump\t// out\n        /* \"#utility.yul\":8009:8150   */\n    tag_101:\n        /* \"#utility.yul\":8065:8070   */\n      0x00\n        /* \"#utility.yul\":8096:8102   */\n      dup2\n        /* \"#utility.yul\":8090:8103   */\n      mload\n        /* \"#utility.yul\":8081:8103   */\n      swap1\n      pop\n        /* \"#utility.yul\":8112:8144   */\n      tag_180\n        /* \"#utility.yul\":8138:8143   */\n      dup2\n        /* \"#utility.yul\":8112:8144   */\n      tag_100\n      jump\t// in\n    tag_180:\n        /* \"#utility.yul\":8009:8150   */\n      swap3\n      swap2\n      pop\n      pop\n      jump\t// out\n        /* \"#utility.yul\":8156:8299   */\n    tag_102:\n        /* \"#utility.yul\":8213:8218   */\n      0x00\n        /* \"#utility.yul\":8244:8250   */\n      dup2\n        /* \"#utility.yul\":8238:8251   */\n      mload\n        /* \"#utility.yul\":8229:8251   */\n      swap1\n      pop\n        /* \"#utility.yul\":8260:8293   */\n      tag_182\n        /* \"#utility.yul\":8287:8292   */\n      dup2\n        /* \"#utility.yul\":8260:8293   */\n      tag_79\n      jump\t// in\n    tag_182:\n        /* \"#utility.yul\":8156:8299   */\n      swap3\n      swap2\n      pop\n      pop\n      jump\t// out\n        /* \"#utility.yul\":8305:9276   */\n    tag_65:\n        /* \"#utility.yul\":8408:8414   */\n      0x00\n        /* \"#utility.yul\":8416:8422   */\n      dup1\n        /* \"#utility.yul\":8424:8430   */\n      0x00\n        /* \"#utility.yul\":8432:8438   */\n      dup1\n        /* \"#utility.yul\":8440:8446   */\n      0x00\n        /* \"#utility.yul\":8489:8492   */\n      0xa0\n        /* \"#utility.yul\":8477:8486   */\n      dup7\n        /* \"#utility.yul\":8468:8475   */\n      dup9\n        /* \"#utility.yul\":8464:8487   */\n      sub\n        /* \"#utility.yul\":8460:8493   */\n      slt\n        /* \"#utility.yul\":8457:8577   */\n      iszero\n      tag_184\n      jumpi\n        /* \"#utility.yul\":8496:8575   */\n      tag_185\n      tag_76\n      jump\t// in\n    tag_185:\n        /* \"#utility.yul\":8457:8577   */\n    tag_184:\n        /* \"#utility.yul\":8616:8617   */\n      0x00\n        /* \"#utility.yul\":8641:8704   */\n      tag_186\n        /* \"#utility.yul\":8696:8703   */\n      dup9\n        /* \"#utility.yul\":8687:8693   */\n      dup3\n        /* \"#utility.yul\":8676:8685   */\n      dup10\n        /* \"#utility.yul\":8672:8694   */\n      add\n        /* \"#utility.yul\":8641:8704   */\n      tag_98\n      jump\t// in\n    tag_186:\n        /* \"#utility.yul\":8631:8704   */\n      swap6\n      pop\n        /* \"#utility.yul\":8587:8714   */\n      pop\n        /* \"#utility.yul\":8753:8755   */\n      0x20\n        /* \"#utility.yul\":8779:8842   */\n      tag_187\n        /* \"#utility.yul\":8834:8841   */\n      dup9\n        /* \"#utility.yul\":8825:8831   */\n      dup3\n        /* \"#utility.yul\":8814:8823   */\n      dup10\n        /* \"#utility.yul\":8810:8832   */\n      add\n        /* \"#utility.yul\":8779:8842   */\n      tag_101\n      jump\t// in\n    tag_187:\n        /* \"#utility.yul\":8769:8842   */\n      swap5\n      pop\n        /* \"#utility.yul\":8724:8852   */\n      pop\n        /* \"#utility.yul\":8891:8893   */\n      0x40\n        /* \"#utility.yul\":8917:8981   */\n      tag_188\n        /* \"#utility.yul\":8973:8980   */\n      dup9\n        /* \"#utility.yul\":8964:8970   */\n      dup3\n        /* \"#utility.yul\":8953:8962   */\n      dup10\n        /* \"#utility.yul\":8949:8971   */\n      add\n        /* \"#utility.yul\":8917:8981   */\n      tag_102\n      jump\t// in\n    tag_188:\n        /* \"#utility.yul\":8907:8981   */\n      swap4\n      pop\n        /* \"#utility.yul\":8862:8991   */\n      pop\n        /* \"#utility.yul\":9030:9032   */\n      0x60\n        /* \"#utility.yul\":9056:9120   */\n      tag_189\n        /* \"#utility.yul\":9112:9119   */\n      dup9\n        /* \"#utility.yul\":9103:9109   */\n      dup3\n        /* \"#utility.yul\":9092:9101   */\n      dup10\n        /* \"#utility.yul\":9088:9110   */\n      add\n        /* \"#utility.yul\":9056:9120   */\n      tag_102\n      jump\t// in\n    tag_189:\n        /* \"#utility.yul\":9046:9120   */\n      swap3\n      pop\n        /* \"#utility.yul\":9001:9130   */\n      pop\n        /* \"#utility.yul\":9169:9172   */\n      0x80\n        /* \"#utility.yul\":9196:9259   */\n      tag_190\n        /* \"#utility.yul\":9251:9258   */\n      dup9\n        /* \"#utility.yul\":9242:9248   */\n      dup3\n        /* \"#utility.yul\":9231:9240   */\n      dup10\n        /* \"#utility.yul\":9227:9249   */\n      add\n        /* \"#utility.yul\":9196:9259   */\n      tag_98\n      jump\t// in\n    tag_190:\n        /* \"#utility.yul\":9186:9259   */\n      swap2\n      pop\n        /* \"#utility.yul\":9140:9269   */\n      pop\n        /* \"#utility.yul\":8305:9276   */\n      swap3\n      swap6\n      pop\n      swap3\n      swap6\n      swap1\n      swap4\n      pop\n      jump\t// out\n        /* \"#utility.yul\":9282:9838   */\n    tag_67:\n        /* \"#utility.yul\":9321:9328   */\n      0x00\n        /* \"#utility.yul\":9344:9363   */\n      tag_192\n        /* \"#utility.yul\":9361:9362   */\n      dup3\n        /* \"#utility.yul\":9344:9363   */\n      tag_99\n      jump\t// in\n    tag_192:\n        /* \"#utility.yul\":9339:9363   */\n      swap2\n      pop\n        /* \"#utility.yul\":9377:9396   */\n      tag_193\n        /* \"#utility.yul\":9394:9395   */\n      dup4\n        /* \"#utility.yul\":9377:9396   */\n      tag_99\n      jump\t// in\n    tag_193:\n        /* \"#utility.yul\":9372:9396   */\n      swap3\n      pop\n        /* \"#utility.yul\":9431:9432   */\n      dup3\n        /* \"#utility.yul\":9428:9429   */\n      dup3\n        /* \"#utility.yul\":9424:9433   */\n      mul\n        /* \"#utility.yul\":9453:9482   */\n      tag_194\n        /* \"#utility.yul\":9470:9481   */\n      dup2\n        /* \"#utility.yul\":9453:9482   */\n      tag_99\n      jump\t// in\n    tag_194:\n        /* \"#utility.yul\":9442:9482   */\n      swap2\n      pop\n        /* \"#utility.yul\":9540:9606   */\n      0x8000000000000000000000000000000000000000000000000000000000000000\n        /* \"#utility.yul\":9537:9538   */\n      dup5\n        /* \"#utility.yul\":9534:9607   */\n      eq\n        /* \"#utility.yul\":9530:9531   */\n      0x00\n        /* \"#utility.yul\":9527:9528   */\n      dup5\n        /* \"#utility.yul\":9523:9532   */\n      slt\n        /* \"#utility.yul\":9519:9608   */\n      and\n        /* \"#utility.yul\":9516:9631   */\n      iszero\n      tag_195\n      jumpi\n        /* \"#utility.yul\":9611:9629   */\n      tag_196\n      tag_87\n      jump\t// in\n    tag_196:\n        /* \"#utility.yul\":9516:9631   */\n    tag_195:\n        /* \"#utility.yul\":9781:9782   */\n      dup3\n        /* \"#utility.yul\":9772:9779   */\n      dup3\n        /* \"#utility.yul\":9767:9783   */\n      sdiv\n        /* \"#utility.yul\":9764:9765   */\n      dup5\n        /* \"#utility.yul\":9761:9784   */\n      eq\n        /* \"#utility.yul\":9741:9742   */\n      dup4\n        /* \"#utility.yul\":9734:9743   */\n      iszero\n        /* \"#utility.yul\":9714:9798   */\n      or\n        /* \"#utility.yul\":9691:9831   */\n      tag_197\n      jumpi\n        /* \"#utility.yul\":9811:9829   */\n      tag_198\n      tag_87\n      jump\t// in\n    tag_198:\n        /* \"#utility.yul\":9691:9831   */\n    tag_197:\n        /* \"#utility.yul\":9329:9838   */\n      pop\n        /* \"#utility.yul\":9282:9838   */\n      swap3\n      swap2\n      pop\n      pop\n      jump\t// out\n\n    auxdata: 0xa264697066735822122018d99de68daef4f0e0ebbb896748ff6e81ae4e884d1463378f14a9c81c1a87c664736f6c63430008110033\n}\n",
				"bytecode": {
					"linkReferences": {},
					"object": "60806040526802b5e3af16b188000060005534801561001d57600080fd5b5033600160006101000a81548173ffffffffffffffffffffffffffffffffffffffff021916908373ffffffffffffffffffffffffffffffffffffffff160217905550610b538061006e6000396000f3fe6080604052600436106100345760003560e01c80633ccfd60b14610039578063b60d428814610050578063dc0d3dff1461005a575b600080fd5b34801561004557600080fd5b5061004e610097565b005b6100586102e3565b005b34801561006657600080fd5b50610081600480360381019061007c91906105dc565b6103d8565b60405161008e919061064a565b60405180910390f35b600160009054906101000a900473ffffffffffffffffffffffffffffffffffffffff1673ffffffffffffffffffffffffffffffffffffffff163373ffffffffffffffffffffffffffffffffffffffff1614610127576040517f08c379a000000000000000000000000000000000000000000000000000000000815260040161011e906106c2565b60405180910390fd5b60005b6002805490508110156101d35760006002828154811061014d5761014c6106e2565b5b9060005260206000200160009054906101000a900473ffffffffffffffffffffffffffffffffffffffff1690506000600360008373ffffffffffffffffffffffffffffffffffffffff1673ffffffffffffffffffffffffffffffffffffffff168152602001908152602001600020819055505080806101cb90610740565b91505061012a565b50600067ffffffffffffffff8111156101ef576101ee610788565b5b60405190808252806020026020018201604052801561021d5781602001602082028036833780820191505090505b50600290805190602001906102339291906104fa565b5060003373ffffffffffffffffffffffffffffffffffffffff164760405161025a906107e8565b60006040518083038185875af1925050503d8060008114610297576040519150601f19603f3d011682016040523d82523d6000602084013e61029c565b606091505b50509050806102e0576040517f08c379a00000000000000000000000000000000000000000000000000000000081526004016102d79061086f565b60405180910390fd5b50565b6000546102ef34610417565b1161032f576040517f08c379a0000000000000000000000000000000000000000000000000000000008152600401610326906108db565b60405180910390fd5b6002339080600181540180825580915050600190039060005260206000200160009091909190916101000a81548173ffffffffffffffffffffffffffffffffffffffff021916908373ffffffffffffffffffffffffffffffffffffffff16021790555034600360003373ffffffffffffffffffffffffffffffffffffffff1673ffffffffffffffffffffffffffffffffffffffff16815260200190815260200160002081905550565b600281815481106103e857600080fd5b906000526020600020016000915054906101000a900473ffffffffffffffffffffffffffffffffffffffff1681565b600080610422610451565b90506000670de0b6b3a7640000848361043b91906108fb565b610445919061096c565b90508092505050919050565b60008073d4a33860578de61dbabdc8bfdb98fd742fa7028e905060008173ffffffffffffffffffffffffffffffffffffffff1663feaf968c6040518163ffffffff1660e01b815260040160a060405180830381865afa1580156104b8573d6000803e3d6000fd5b505050506040513d601f19601f820116820180604052508101906104dc9190610a2a565b5050509150506402540be400816104f39190610aa5565b9250505090565b828054828255906000526020600020908101928215610573579160200282015b828111156105725782518260006101000a81548173ffffffffffffffffffffffffffffffffffffffff021916908373ffffffffffffffffffffffffffffffffffffffff1602179055509160200191906001019061051a565b5b5090506105809190610584565b5090565b5b8082111561059d576000816000905550600101610585565b5090565b600080fd5b6000819050919050565b6105b9816105a6565b81146105c457600080fd5b50565b6000813590506105d6816105b0565b92915050565b6000602082840312156105f2576105f16105a1565b5b6000610600848285016105c7565b91505092915050565b600073ffffffffffffffffffffffffffffffffffffffff82169050919050565b600061063482610609565b9050919050565b61064481610629565b82525050565b600060208201905061065f600083018461063b565b92915050565b600082825260208201905092915050565b7f4f4e4c5920544845204f574e45522043414e2057495448445241570000000000600082015250565b60006106ac601b83610665565b91506106b782610676565b602082019050919050565b600060208201905081810360008301526106db8161069f565b9050919050565b7f4e487b7100000000000000000000000000000000000000000000000000000000600052603260045260246000fd5b7f4e487b7100000000000000000000000000000000000000000000000000000000600052601160045260246000fd5b600061074b826105a6565b91507fffffffffffffffffffffffffffffffffffffffffffffffffffffffffffffffff820361077d5761077c610711565b5b600182019050919050565b7f4e487b7100000000000000000000000000000000000000000000000000000000600052604160045260246000fd5b600081905092915050565b50565b60006107d26000836107b7565b91506107dd826107c2565b600082019050919050565b60006107f3826107c5565b9150819050919050565b7f4661696c656420746f2077697468647261772066756e6473207769746820636160008201527f6c6c000000000000000000000000000000000000000000000000000000000000602082015250565b6000610859602283610665565b9150610864826107fd565b604082019050919050565b600060208201905081810360008301526108888161084c565b9050919050565b7f4469646e27742073656e6420656e6f7567682045544800000000000000000000600082015250565b60006108c5601683610665565b91506108d08261088f565b602082019050919050565b600060208201905081810360008301526108f4816108b8565b9050919050565b6000610906826105a6565b9150610911836105a6565b925082820261091f816105a6565b9150828204841483151761093657610935610711565b5b5092915050565b7f4e487b7100000000000000000000000000000000000000000000000000000000600052601260045260246000fd5b6000610977826105a6565b9150610982836105a6565b9250826109925761099161093d565b5b828204905092915050565b600069ffffffffffffffffffff82169050919050565b6109bc8161099d565b81146109c757600080fd5b50565b6000815190506109d9816109b3565b92915050565b6000819050919050565b6109f2816109df565b81146109fd57600080fd5b50565b600081519050610a0f816109e9565b92915050565b600081519050610a24816105b0565b92915050565b600080600080600060a08688031215610a4657610a456105a1565b5b6000610a54888289016109ca565b9550506020610a6588828901610a00565b9450506040610a7688828901610a15565b9350506060610a8788828901610a15565b9250506080610a98888289016109ca565b9150509295509295909350565b6000610ab0826109df565b9150610abb836109df565b9250828202610ac9816109df565b91507f80000000000000000000000000000000000000000000000000000000000000008414600084121615610b0157610b00610711565b5b8282058414831517610b1657610b15610711565b5b509291505056fea264697066735822122018d99de68daef4f0e0ebbb896748ff6e81ae4e884d1463378f14a9c81c1a87c664736f6c63430008110033",
					"opcodes": "PUSH1 0x80 PUSH1 0x40 MSTORE PUSH9 0x2B5E3AF16B1880000 PUSH1 0x0 SSTORE CALLVALUE DUP1 ISZERO PUSH2 0x1D JUMPI PUSH1 0x0 DUP1 REVERT JUMPDEST POP CALLER PUSH1 0x1 PUSH1 0x0 PUSH2 0x100 EXP DUP2 SLOAD DUP2 PUSH20 0xFFFFFFFFFFFFFFFFFFFFFFFFFFFFFFFFFFFFFFFF MUL NOT AND SWAP1 DUP4 PUSH20 0xFFFFFFFFFFFFFFFFFFFFFFFFFFFFFFFFFFFFFFFF AND MUL OR SWAP1 SSTORE POP PUSH2 0xB53 DUP1 PUSH2 0x6E PUSH1 0x0 CODECOPY PUSH1 0x0 RETURN INVALID PUSH1 0x80 PUSH1 0x40 MSTORE PUSH1 0x4 CALLDATASIZE LT PUSH2 0x34 JUMPI PUSH1 0x0 CALLDATALOAD PUSH1 0xE0 SHR DUP1 PUSH4 0x3CCFD60B EQ PUSH2 0x39 JUMPI DUP1 PUSH4 0xB60D4288 EQ PUSH2 0x50 JUMPI DUP1 PUSH4 0xDC0D3DFF EQ PUSH2 0x5A JUMPI JUMPDEST PUSH1 0x0 DUP1 REVERT JUMPDEST CALLVALUE DUP1 ISZERO PUSH2 0x45 JUMPI PUSH1 0x0 DUP1 REVERT JUMPDEST POP PUSH2 0x4E PUSH2 0x97 JUMP JUMPDEST STOP JUMPDEST PUSH2 0x58 PUSH2 0x2E3 JUMP JUMPDEST STOP JUMPDEST CALLVALUE DUP1 ISZERO PUSH2 0x66 JUMPI PUSH1 0x0 DUP1 REVERT JUMPDEST POP PUSH2 0x81 PUSH1 0x4 DUP1 CALLDATASIZE SUB DUP2 ADD SWAP1 PUSH2 0x7C SWAP2 SWAP1 PUSH2 0x5DC JUMP JUMPDEST PUSH2 0x3D8 JUMP JUMPDEST PUSH1 0x40 MLOAD PUSH2 0x8E SWAP2 SWAP1 PUSH2 0x64A JUMP JUMPDEST PUSH1 0x40 MLOAD DUP1 SWAP2 SUB SWAP1 RETURN JUMPDEST PUSH1 0x1 PUSH1 0x0 SWAP1 SLOAD SWAP1 PUSH2 0x100 EXP SWAP1 DIV PUSH20 0xFFFFFFFFFFFFFFFFFFFFFFFFFFFFFFFFFFFFFFFF AND PUSH20 0xFFFFFFFFFFFFFFFFFFFFFFFFFFFFFFFFFFFFFFFF AND CALLER PUSH20 0xFFFFFFFFFFFFFFFFFFFFFFFFFFFFFFFFFFFFFFFF AND EQ PUSH2 0x127 JUMPI PUSH1 0x40 MLOAD PUSH32 0x8C379A000000000000000000000000000000000000000000000000000000000 DUP2 MSTORE PUSH1 0x4 ADD PUSH2 0x11E SWAP1 PUSH2 0x6C2 JUMP JUMPDEST PUSH1 0x40 MLOAD DUP1 SWAP2 SUB SWAP1 REVERT JUMPDEST PUSH1 0x0 JUMPDEST PUSH1 0x2 DUP1 SLOAD SWAP1 POP DUP2 LT ISZERO PUSH2 0x1D3 JUMPI PUSH1 0x0 PUSH1 0x2 DUP3 DUP2 SLOAD DUP2 LT PUSH2 0x14D JUMPI PUSH2 0x14C PUSH2 0x6E2 JUMP JUMPDEST JUMPDEST SWAP1 PUSH1 0x0 MSTORE PUSH1 0x20 PUSH1 0x0 KECCAK256 ADD PUSH1 0x0 SWAP1 SLOAD SWAP1 PUSH2 0x100 EXP SWAP1 DIV PUSH20 0xFFFFFFFFFFFFFFFFFFFFFFFFFFFFFFFFFFFFFFFF AND SWAP1 POP PUSH1 0x0 PUSH1 0x3 PUSH1 0x0 DUP4 PUSH20 0xFFFFFFFFFFFFFFFFFFFFFFFFFFFFFFFFFFFFFFFF AND PUSH20 0xFFFFFFFFFFFFFFFFFFFFFFFFFFFFFFFFFFFFFFFF AND DUP2 MSTORE PUSH1 0x20 ADD SWAP1 DUP2 MSTORE PUSH1 0x20 ADD PUSH1 0x0 KECCAK256 DUP2 SWAP1 SSTORE POP POP DUP1 DUP1 PUSH2 0x1CB SWAP1 PUSH2 0x740 JUMP JUMPDEST SWAP2 POP POP PUSH2 0x12A JUMP JUMPDEST POP PUSH1 0x0 PUSH8 0xFFFFFFFFFFFFFFFF DUP2 GT ISZERO PUSH2 0x1EF JUMPI PUSH2 0x1EE PUSH2 0x788 JUMP JUMPDEST JUMPDEST PUSH1 0x40 MLOAD SWAP1 DUP1 DUP3 MSTORE DUP1 PUSH1 0x20 MUL PUSH1 0x20 ADD DUP3 ADD PUSH1 0x40 MSTORE DUP1 ISZERO PUSH2 0x21D JUMPI DUP2 PUSH1 0x20 ADD PUSH1 0x20 DUP3 MUL DUP1 CALLDATASIZE DUP4 CALLDATACOPY DUP1 DUP3 ADD SWAP2 POP POP SWAP1 POP JUMPDEST POP PUSH1 0x2 SWAP1 DUP1 MLOAD SWAP1 PUSH1 0x20 ADD SWAP1 PUSH2 0x233 SWAP3 SWAP2 SWAP1 PUSH2 0x4FA JUMP JUMPDEST POP PUSH1 0x0 CALLER PUSH20 0xFFFFFFFFFFFFFFFFFFFFFFFFFFFFFFFFFFFFFFFF AND SELFBALANCE PUSH1 0x40 MLOAD PUSH2 0x25A SWAP1 PUSH2 0x7E8 JUMP JUMPDEST PUSH1 0x0 PUSH1 0x40 MLOAD DUP1 DUP4 SUB DUP2 DUP6 DUP8 GAS CALL SWAP3 POP POP POP RETURNDATASIZE DUP1 PUSH1 0x0 DUP2 EQ PUSH2 0x297 JUMPI PUSH1 0x40 MLOAD SWAP2 POP PUSH1 0x1F NOT PUSH1 0x3F RETURNDATASIZE ADD AND DUP3 ADD PUSH1 0x40 MSTORE RETURNDATASIZE DUP3 MSTORE RETURNDATASIZE PUSH1 0x0 PUSH1 0x20 DUP5 ADD RETURNDATACOPY PUSH2 0x29C JUMP JUMPDEST PUSH1 0x60 SWAP2 POP JUMPDEST POP POP SWAP1 POP DUP1 PUSH2 0x2E0 JUMPI PUSH1 0x40 MLOAD PUSH32 0x8C379A000000000000000000000000000000000000000000000000000000000 DUP2 MSTORE PUSH1 0x4 ADD PUSH2 0x2D7 SWAP1 PUSH2 0x86F JUMP JUMPDEST PUSH1 0x40 MLOAD DUP1 SWAP2 SUB SWAP1 REVERT JUMPDEST POP JUMP JUMPDEST PUSH1 0x0 SLOAD PUSH2 0x2EF CALLVALUE PUSH2 0x417 JUMP JUMPDEST GT PUSH2 0x32F JUMPI PUSH1 0x40 MLOAD PUSH32 0x8C379A000000000000000000000000000000000000000000000000000000000 DUP2 MSTORE PUSH1 0x4 ADD PUSH2 0x326 SWAP1 PUSH2 0x8DB JUMP JUMPDEST PUSH1 0x40 MLOAD DUP1 SWAP2 SUB SWAP1 REVERT JUMPDEST PUSH1 0x2 CALLER SWAP1 DUP1 PUSH1 0x1 DUP2 SLOAD ADD DUP1 DUP3 SSTORE DUP1 SWAP2 POP POP PUSH1 0x1 SWAP1 SUB SWAP1 PUSH1 0x0 MSTORE PUSH1 0x20 PUSH1 0x0 KECCAK256 ADD PUSH1 0x0 SWAP1 SWAP2 SWAP1 SWAP2 SWAP1 SWAP2 PUSH2 0x100 EXP DUP2 SLOAD DUP2 PUSH20 0xFFFFFFFFFFFFFFFFFFFFFFFFFFFFFFFFFFFFFFFF MUL NOT AND SWAP1 DUP4 PUSH20 0xFFFFFFFFFFFFFFFFFFFFFFFFFFFFFFFFFFFFFFFF AND MUL OR SWAP1 SSTORE POP CALLVALUE PUSH1 0x3 PUSH1 0x0 CALLER PUSH20 0xFFFFFFFFFFFFFFFFFFFFFFFFFFFFFFFFFFFFFFFF AND PUSH20 0xFFFFFFFFFFFFFFFFFFFFFFFFFFFFFFFFFFFFFFFF AND DUP2 MSTORE PUSH1 0x20 ADD SWAP1 DUP2 MSTORE PUSH1 0x20 ADD PUSH1 0x0 KECCAK256 DUP2 SWAP1 SSTORE POP JUMP JUMPDEST PUSH1 0x2 DUP2 DUP2 SLOAD DUP2 LT PUSH2 0x3E8 JUMPI PUSH1 0x0 DUP1 REVERT JUMPDEST SWAP1 PUSH1 0x0 MSTORE PUSH1 0x20 PUSH1 0x0 KECCAK256 ADD PUSH1 0x0 SWAP2 POP SLOAD SWAP1 PUSH2 0x100 EXP SWAP1 DIV PUSH20 0xFFFFFFFFFFFFFFFFFFFFFFFFFFFFFFFFFFFFFFFF AND DUP2 JUMP JUMPDEST PUSH1 0x0 DUP1 PUSH2 0x422 PUSH2 0x451 JUMP JUMPDEST SWAP1 POP PUSH1 0x0 PUSH8 0xDE0B6B3A7640000 DUP5 DUP4 PUSH2 0x43B SWAP2 SWAP1 PUSH2 0x8FB JUMP JUMPDEST PUSH2 0x445 SWAP2 SWAP1 PUSH2 0x96C JUMP JUMPDEST SWAP1 POP DUP1 SWAP3 POP POP POP SWAP2 SWAP1 POP JUMP JUMPDEST PUSH1 0x0 DUP1 PUSH20 0xD4A33860578DE61DBABDC8BFDB98FD742FA7028E SWAP1 POP PUSH1 0x0 DUP2 PUSH20 0xFFFFFFFFFFFFFFFFFFFFFFFFFFFFFFFFFFFFFFFF AND PUSH4 0xFEAF968C PUSH1 0x40 MLOAD DUP2 PUSH4 0xFFFFFFFF AND PUSH1 0xE0 SHL DUP2 MSTORE PUSH1 0x4 ADD PUSH1 0xA0 PUSH1 0x40 MLOAD DUP1 DUP4 SUB DUP2 DUP7 GAS STATICCALL ISZERO DUP1 ISZERO PUSH2 0x4B8 JUMPI RETURNDATASIZE PUSH1 0x0 DUP1 RETURNDATACOPY RETURNDATASIZE PUSH1 0x0 REVERT JUMPDEST POP POP POP POP PUSH1 0x40 MLOAD RETURNDATASIZE PUSH1 0x1F NOT PUSH1 0x1F DUP3 ADD AND DUP3 ADD DUP1 PUSH1 0x40 MSTORE POP DUP2 ADD SWAP1 PUSH2 0x4DC SWAP2 SWAP1 PUSH2 0xA2A JUMP JUMPDEST POP POP POP SWAP2 POP POP PUSH5 0x2540BE400 DUP2 PUSH2 0x4F3 SWAP2 SWAP1 PUSH2 0xAA5 JUMP JUMPDEST SWAP3 POP POP POP SWAP1 JUMP JUMPDEST DUP3 DUP1 SLOAD DUP3 DUP3 SSTORE SWAP1 PUSH1 0x0 MSTORE PUSH1 0x20 PUSH1 0x0 KECCAK256 SWAP1 DUP2 ADD SWAP3 DUP3 ISZERO PUSH2 0x573 JUMPI SWAP2 PUSH1 0x20 MUL DUP3 ADD JUMPDEST DUP3 DUP2 GT ISZERO PUSH2 0x572 JUMPI DUP3 MLOAD DUP3 PUSH1 0x0 PUSH2 0x100 EXP DUP2 SLOAD DUP2 PUSH20 0xFFFFFFFFFFFFFFFFFFFFFFFFFFFFFFFFFFFFFFFF MUL NOT AND SWAP1 DUP4 PUSH20 0xFFFFFFFFFFFFFFFFFFFFFFFFFFFFFFFFFFFFFFFF AND MUL OR SWAP1 SSTORE POP SWAP2 PUSH1 0x20 ADD SWAP2 SWAP1 PUSH1 0x1 ADD SWAP1 PUSH2 0x51A JUMP JUMPDEST JUMPDEST POP SWAP1 POP PUSH2 0x580 SWAP2 SWAP1 PUSH2 0x584 JUMP JUMPDEST POP SWAP1 JUMP JUMPDEST JUMPDEST DUP1 DUP3 GT ISZERO PUSH2 0x59D JUMPI PUSH1 0x0 DUP2 PUSH1 0x0 SWAP1 SSTORE POP PUSH1 0x1 ADD PUSH2 0x585 JUMP JUMPDEST POP SWAP1 JUMP JUMPDEST PUSH1 0x0 DUP1 REVERT JUMPDEST PUSH1 0x0 DUP2 SWAP1 POP SWAP2 SWAP1 POP JUMP JUMPDEST PUSH2 0x5B9 DUP2 PUSH2 0x5A6 JUMP JUMPDEST DUP2 EQ PUSH2 0x5C4 JUMPI PUSH1 0x0 DUP1 REVERT JUMPDEST POP JUMP JUMPDEST PUSH1 0x0 DUP2 CALLDATALOAD SWAP1 POP PUSH2 0x5D6 DUP2 PUSH2 0x5B0 JUMP JUMPDEST SWAP3 SWAP2 POP POP JUMP JUMPDEST PUSH1 0x0 PUSH1 0x20 DUP3 DUP5 SUB SLT ISZERO PUSH2 0x5F2 JUMPI PUSH2 0x5F1 PUSH2 0x5A1 JUMP JUMPDEST JUMPDEST PUSH1 0x0 PUSH2 0x600 DUP5 DUP3 DUP6 ADD PUSH2 0x5C7 JUMP JUMPDEST SWAP2 POP POP SWAP3 SWAP2 POP POP JUMP JUMPDEST PUSH1 0x0 PUSH20 0xFFFFFFFFFFFFFFFFFFFFFFFFFFFFFFFFFFFFFFFF DUP3 AND SWAP1 POP SWAP2 SWAP1 POP JUMP JUMPDEST PUSH1 0x0 PUSH2 0x634 DUP3 PUSH2 0x609 JUMP JUMPDEST SWAP1 POP SWAP2 SWAP1 POP JUMP JUMPDEST PUSH2 0x644 DUP2 PUSH2 0x629 JUMP JUMPDEST DUP3 MSTORE POP POP JUMP JUMPDEST PUSH1 0x0 PUSH1 0x20 DUP3 ADD SWAP1 POP PUSH2 0x65F PUSH1 0x0 DUP4 ADD DUP5 PUSH2 0x63B JUMP JUMPDEST SWAP3 SWAP2 POP POP JUMP JUMPDEST PUSH1 0x0 DUP3 DUP3 MSTORE PUSH1 0x20 DUP3 ADD SWAP1 POP SWAP3 SWAP2 POP POP JUMP JUMPDEST PUSH32 0x4F4E4C5920544845204F574E45522043414E2057495448445241570000000000 PUSH1 0x0 DUP3 ADD MSTORE POP JUMP JUMPDEST PUSH1 0x0 PUSH2 0x6AC PUSH1 0x1B DUP4 PUSH2 0x665 JUMP JUMPDEST SWAP2 POP PUSH2 0x6B7 DUP3 PUSH2 0x676 JUMP JUMPDEST PUSH1 0x20 DUP3 ADD SWAP1 POP SWAP2 SWAP1 POP JUMP JUMPDEST PUSH1 0x0 PUSH1 0x20 DUP3 ADD SWAP1 POP DUP2 DUP2 SUB PUSH1 0x0 DUP4 ADD MSTORE PUSH2 0x6DB DUP2 PUSH2 0x69F JUMP JUMPDEST SWAP1 POP SWAP2 SWAP1 POP JUMP JUMPDEST PUSH32 0x4E487B7100000000000000000000000000000000000000000000000000000000 PUSH1 0x0 MSTORE PUSH1 0x32 PUSH1 0x4 MSTORE PUSH1 0x24 PUSH1 0x0 REVERT JUMPDEST PUSH32 0x4E487B7100000000000000000000000000000000000000000000000000000000 PUSH1 0x0 MSTORE PUSH1 0x11 PUSH1 0x4 MSTORE PUSH1 0x24 PUSH1 0x0 REVERT JUMPDEST PUSH1 0x0 PUSH2 0x74B DUP3 PUSH2 0x5A6 JUMP JUMPDEST SWAP2 POP PUSH32 0xFFFFFFFFFFFFFFFFFFFFFFFFFFFFFFFFFFFFFFFFFFFFFFFFFFFFFFFFFFFFFFFF DUP3 SUB PUSH2 0x77D JUMPI PUSH2 0x77C PUSH2 0x711 JUMP JUMPDEST JUMPDEST PUSH1 0x1 DUP3 ADD SWAP1 POP SWAP2 SWAP1 POP JUMP JUMPDEST PUSH32 0x4E487B7100000000000000000000000000000000000000000000000000000000 PUSH1 0x0 MSTORE PUSH1 0x41 PUSH1 0x4 MSTORE PUSH1 0x24 PUSH1 0x0 REVERT JUMPDEST PUSH1 0x0 DUP2 SWAP1 POP SWAP3 SWAP2 POP POP JUMP JUMPDEST POP JUMP JUMPDEST PUSH1 0x0 PUSH2 0x7D2 PUSH1 0x0 DUP4 PUSH2 0x7B7 JUMP JUMPDEST SWAP2 POP PUSH2 0x7DD DUP3 PUSH2 0x7C2 JUMP JUMPDEST PUSH1 0x0 DUP3 ADD SWAP1 POP SWAP2 SWAP1 POP JUMP JUMPDEST PUSH1 0x0 PUSH2 0x7F3 DUP3 PUSH2 0x7C5 JUMP JUMPDEST SWAP2 POP DUP2 SWAP1 POP SWAP2 SWAP1 POP JUMP JUMPDEST PUSH32 0x4661696C656420746F2077697468647261772066756E64732077697468206361 PUSH1 0x0 DUP3 ADD MSTORE PUSH32 0x6C6C000000000000000000000000000000000000000000000000000000000000 PUSH1 0x20 DUP3 ADD MSTORE POP JUMP JUMPDEST PUSH1 0x0 PUSH2 0x859 PUSH1 0x22 DUP4 PUSH2 0x665 JUMP JUMPDEST SWAP2 POP PUSH2 0x864 DUP3 PUSH2 0x7FD JUMP JUMPDEST PUSH1 0x40 DUP3 ADD SWAP1 POP SWAP2 SWAP1 POP JUMP JUMPDEST PUSH1 0x0 PUSH1 0x20 DUP3 ADD SWAP1 POP DUP2 DUP2 SUB PUSH1 0x0 DUP4 ADD MSTORE PUSH2 0x888 DUP2 PUSH2 0x84C JUMP JUMPDEST SWAP1 POP SWAP2 SWAP1 POP JUMP JUMPDEST PUSH32 0x4469646E27742073656E6420656E6F7567682045544800000000000000000000 PUSH1 0x0 DUP3 ADD MSTORE POP JUMP JUMPDEST PUSH1 0x0 PUSH2 0x8C5 PUSH1 0x16 DUP4 PUSH2 0x665 JUMP JUMPDEST SWAP2 POP PUSH2 0x8D0 DUP3 PUSH2 0x88F JUMP JUMPDEST PUSH1 0x20 DUP3 ADD SWAP1 POP SWAP2 SWAP1 POP JUMP JUMPDEST PUSH1 0x0 PUSH1 0x20 DUP3 ADD SWAP1 POP DUP2 DUP2 SUB PUSH1 0x0 DUP4 ADD MSTORE PUSH2 0x8F4 DUP2 PUSH2 0x8B8 JUMP JUMPDEST SWAP1 POP SWAP2 SWAP1 POP JUMP JUMPDEST PUSH1 0x0 PUSH2 0x906 DUP3 PUSH2 0x5A6 JUMP JUMPDEST SWAP2 POP PUSH2 0x911 DUP4 PUSH2 0x5A6 JUMP JUMPDEST SWAP3 POP DUP3 DUP3 MUL PUSH2 0x91F DUP2 PUSH2 0x5A6 JUMP JUMPDEST SWAP2 POP DUP3 DUP3 DIV DUP5 EQ DUP4 ISZERO OR PUSH2 0x936 JUMPI PUSH2 0x935 PUSH2 0x711 JUMP JUMPDEST JUMPDEST POP SWAP3 SWAP2 POP POP JUMP JUMPDEST PUSH32 0x4E487B7100000000000000000000000000000000000000000000000000000000 PUSH1 0x0 MSTORE PUSH1 0x12 PUSH1 0x4 MSTORE PUSH1 0x24 PUSH1 0x0 REVERT JUMPDEST PUSH1 0x0 PUSH2 0x977 DUP3 PUSH2 0x5A6 JUMP JUMPDEST SWAP2 POP PUSH2 0x982 DUP4 PUSH2 0x5A6 JUMP JUMPDEST SWAP3 POP DUP3 PUSH2 0x992 JUMPI PUSH2 0x991 PUSH2 0x93D JUMP JUMPDEST JUMPDEST DUP3 DUP3 DIV SWAP1 POP SWAP3 SWAP2 POP POP JUMP JUMPDEST PUSH1 0x0 PUSH10 0xFFFFFFFFFFFFFFFFFFFF DUP3 AND SWAP1 POP SWAP2 SWAP1 POP JUMP JUMPDEST PUSH2 0x9BC DUP2 PUSH2 0x99D JUMP JUMPDEST DUP2 EQ PUSH2 0x9C7 JUMPI PUSH1 0x0 DUP1 REVERT JUMPDEST POP JUMP JUMPDEST PUSH1 0x0 DUP2 MLOAD SWAP1 POP PUSH2 0x9D9 DUP2 PUSH2 0x9B3 JUMP JUMPDEST SWAP3 SWAP2 POP POP JUMP JUMPDEST PUSH1 0x0 DUP2 SWAP1 POP SWAP2 SWAP1 POP JUMP JUMPDEST PUSH2 0x9F2 DUP2 PUSH2 0x9DF JUMP JUMPDEST DUP2 EQ PUSH2 0x9FD JUMPI PUSH1 0x0 DUP1 REVERT JUMPDEST POP JUMP JUMPDEST PUSH1 0x0 DUP2 MLOAD SWAP1 POP PUSH2 0xA0F DUP2 PUSH2 0x9E9 JUMP JUMPDEST SWAP3 SWAP2 POP POP JUMP JUMPDEST PUSH1 0x0 DUP2 MLOAD SWAP1 POP PUSH2 0xA24 DUP2 PUSH2 0x5B0 JUMP JUMPDEST SWAP3 SWAP2 POP POP JUMP JUMPDEST PUSH1 0x0 DUP1 PUSH1 0x0 DUP1 PUSH1 0x0 PUSH1 0xA0 DUP7 DUP9 SUB SLT ISZERO PUSH2 0xA46 JUMPI PUSH2 0xA45 PUSH2 0x5A1 JUMP JUMPDEST JUMPDEST PUSH1 0x0 PUSH2 0xA54 DUP9 DUP3 DUP10 ADD PUSH2 0x9CA JUMP JUMPDEST SWAP6 POP POP PUSH1 0x20 PUSH2 0xA65 DUP9 DUP3 DUP10 ADD PUSH2 0xA00 JUMP JUMPDEST SWAP5 POP POP PUSH1 0x40 PUSH2 0xA76 DUP9 DUP3 DUP10 ADD PUSH2 0xA15 JUMP JUMPDEST SWAP4 POP POP PUSH1 0x60 PUSH2 0xA87 DUP9 DUP3 DUP10 ADD PUSH2 0xA15 JUMP JUMPDEST SWAP3 POP POP PUSH1 0x80 PUSH2 0xA98 DUP9 DUP3 DUP10 ADD PUSH2 0x9CA JUMP JUMPDEST SWAP2 POP POP SWAP3 SWAP6 POP SWAP3 SWAP6 SWAP1 SWAP4 POP JUMP JUMPDEST PUSH1 0x0 PUSH2 0xAB0 DUP3 PUSH2 0x9DF JUMP JUMPDEST SWAP2 POP PUSH2 0xABB DUP4 PUSH2 0x9DF JUMP JUMPDEST SWAP3 POP DUP3 DUP3 MUL PUSH2 0xAC9 DUP2 PUSH2 0x9DF JUMP JUMPDEST SWAP2 POP PUSH32 0x8000000000000000000000000000000000000000000000000000000000000000 DUP5 EQ PUSH1 0x0 DUP5 SLT AND ISZERO PUSH2 0xB01 JUMPI PUSH2 0xB00 PUSH2 0x711 JUMP JUMPDEST JUMPDEST DUP3 DUP3 SDIV DUP5 EQ DUP4 ISZERO OR PUSH2 0xB16 JUMPI PUSH2 0xB15 PUSH2 0x711 JUMP JUMPDEST JUMPDEST POP SWAP3 SWAP2 POP POP JUMP INVALID LOG2 PUSH5 0x6970667358 0x22 SLT KECCAK256 XOR 0xD9 SWAP14 0xE6 DUP14 0xAE DELEGATECALL CREATE 0xE0 0xEB 0xBB DUP10 PUSH8 0x48FF6E81AE4E884D EQ PUSH4 0x378F14A9 0xC8 SHR BYTE DUP8 0xC6 PUSH5 0x736F6C6343 STOP ADDMOD GT STOP CALLER "
				},
				"gasEstimates": {
					"creation": {
						"codeDepositCost": "579800",
						"executionCost": "46985",
						"totalCost": "626785"
					},
					"external": {
						"fund()": "infinite",
						"funders(uint256)": "4978",
						"withdraw()": "infinite"
					}
				},
				"methodIdentifiers": {
					"fund()": "b60d4288",
					"funders(uint256)": "dc0d3dff",
					"withdraw()": "3ccfd60b"
				}
			},
			"storageLayout": {
				"storage": [
					{
						"astId": 56,
						"contract": "contracts/FundMe.sol:FundMe",
						"label": "minimumUsd",
						"offset": 0,
						"slot": "0",
						"type": "t_uint256"
					},
					{
						"astId": 58,
						"contract": "contracts/FundMe.sol:FundMe",
						"label": "owner",
						"offset": 0,
						"slot": "1",
						"type": "t_address"
					},
					{
						"astId": 61,
						"contract": "contracts/FundMe.sol:FundMe",
						"label": "funders",
						"offset": 0,
						"slot": "2",
						"type": "t_array(t_address)dyn_storage"
					},
					{
						"astId": 65,
						"contract": "contracts/FundMe.sol:FundMe",
						"label": "addressToAmountFunded",
						"offset": 0,
						"slot": "3",
						"type": "t_mapping(t_address,t_uint256)"
					}
				],
				"types": {
					"t_address": {
						"encoding": "inplace",
						"label": "address",
						"numberOfBytes": "20"
					},
					"t_array(t_address)dyn_storage": {
						"base": "t_address",
						"encoding": "dynamic_array",
						"label": "address[]",
						"numberOfBytes": "32"
					},
					"t_mapping(t_address,t_uint256)": {
						"encoding": "mapping",
						"key": "t_address",
						"label": "mapping(address => uint256)",
						"numberOfBytes": "32",
						"value": "t_uint256"
					},
					"t_uint256": {
						"encoding": "inplace",
						"label": "uint256",
						"numberOfBytes": "32"
					}
				}
			},
			"userdoc": {
				"kind": "user",
				"methods": {},
				"version": 1
			}
		}
	}
}