{
	"contracts/FundMe.sol": {
		"FundMe": {
			"abi": [
				{
					"inputs": [],
					"name": "fund",
					"outputs": [],
					"stateMutability": "payable",
					"type": "function"
				},
				{
					"inputs": [
						{
							"internalType": "uint256",
							"name": "",
							"type": "uint256"
						}
					],
					"name": "funders",
					"outputs": [
						{
							"internalType": "address",
							"name": "",
							"type": "address"
						}
					],
					"stateMutability": "view",
					"type": "function"
				}
			],
			"devdoc": {
				"kind": "dev",
				"methods": {},
				"version": 1
			},
			"evm": {
				"assembly": "    /* \"contracts/FundMe.sol\":200:841  contract FundMe {... */\n  mstore(0x40, 0x80)\n    /* \"contracts/FundMe.sol\":287:296  50 * 1e18 */\n  0x02b5e3af16b1880000\n    /* \"contracts/FundMe.sol\":266:296  uint256 minimumUsd = 50 * 1e18 */\n  0x00\n  sstore\n    /* \"contracts/FundMe.sol\":200:841  contract FundMe {... */\n  callvalue\n  dup1\n  iszero\n  tag_1\n  jumpi\n  0x00\n  dup1\n  revert\ntag_1:\n  pop\n  dataSize(sub_0)\n  dup1\n  dataOffset(sub_0)\n  0x00\n  codecopy\n  0x00\n  return\nstop\n\nsub_0: assembly {\n        /* \"contracts/FundMe.sol\":200:841  contract FundMe {... */\n      mstore(0x40, 0x80)\n      jumpi(tag_1, lt(calldatasize, 0x04))\n      shr(0xe0, calldataload(0x00))\n      dup1\n      0xb60d4288\n      eq\n      tag_2\n      jumpi\n      dup1\n      0xdc0d3dff\n      eq\n      tag_3\n      jumpi\n    tag_1:\n      0x00\n      dup1\n      revert\n        /* \"contracts/FundMe.sol\":396:797  function fund() public payable {... */\n    tag_2:\n      tag_4\n      tag_5\n      jump\t// in\n    tag_4:\n      stop\n        /* \"contracts/FundMe.sol\":305:329  address[] public funders */\n    tag_3:\n      callvalue\n      dup1\n      iszero\n      tag_6\n      jumpi\n      0x00\n      dup1\n      revert\n    tag_6:\n      pop\n      tag_7\n      0x04\n      dup1\n      calldatasize\n      sub\n      dup2\n      add\n      swap1\n      tag_8\n      swap2\n      swap1\n      tag_9\n      jump\t// in\n    tag_8:\n      tag_10\n      jump\t// in\n    tag_7:\n      mload(0x40)\n      tag_11\n      swap2\n      swap1\n      tag_12\n      jump\t// in\n    tag_11:\n      mload(0x40)\n      dup1\n      swap2\n      sub\n      swap1\n      return\n        /* \"contracts/FundMe.sol\":396:797  function fund() public payable {... */\n    tag_5:\n        /* \"contracts/FundMe.sol\":661:671  minimumUsd */\n      sload(0x00)\n        /* \"contracts/FundMe.sol\":629:658  msg.value.getConversionRate() */\n      tag_14\n        /* \"contracts/FundMe.sol\":629:638  msg.value */\n      callvalue\n        /* \"contracts/FundMe.sol\":629:656  msg.value.getConversionRate */\n      tag_15\n        /* \"contracts/FundMe.sol\":629:658  msg.value.getConversionRate() */\n      jump\t// in\n    tag_14:\n        /* \"contracts/FundMe.sol\":629:671  msg.value.getConversionRate() > minimumUsd */\n      gt\n        /* \"contracts/FundMe.sol\":621:698  require(msg.value.getConversionRate() > minimumUsd, \"Didn't send enough ETH\") */\n      tag_16\n      jumpi\n      mload(0x40)\n      0x08c379a000000000000000000000000000000000000000000000000000000000\n      dup2\n      mstore\n      0x04\n      add\n      tag_17\n      swap1\n      tag_18\n      jump\t// in\n    tag_17:\n      mload(0x40)\n      dup1\n      swap2\n      sub\n      swap1\n      revert\n    tag_16:\n        /* \"contracts/FundMe.sol\":709:716  funders */\n      0x01\n        /* \"contracts/FundMe.sol\":722:732  msg.sender */\n      caller\n        /* \"contracts/FundMe.sol\":709:733  funders.push(msg.sender) */\n      swap1\n      dup1\n      0x01\n      dup2\n      sload\n      add\n      dup1\n      dup3\n      sstore\n      dup1\n      swap2\n      pop\n      pop\n      0x01\n      swap1\n      sub\n      swap1\n      0x00\n      mstore\n      keccak256(0x00, 0x20)\n      add\n      0x00\n      swap1\n      swap2\n      swap1\n      swap2\n      swap1\n      swap2\n      0x0100\n      exp\n      dup2\n      sload\n      dup2\n      0xffffffffffffffffffffffffffffffffffffffff\n      mul\n      not\n      and\n      swap1\n      dup4\n      0xffffffffffffffffffffffffffffffffffffffff\n      and\n      mul\n      or\n      swap1\n      sstore\n      pop\n        /* \"contracts/FundMe.sol\":780:789  msg.value */\n      callvalue\n        /* \"contracts/FundMe.sol\":744:765  addressToAmountFunded */\n      0x02\n        /* \"contracts/FundMe.sol\":744:777  addressToAmountFunded[msg.sender] */\n      0x00\n        /* \"contracts/FundMe.sol\":766:776  msg.sender */\n      caller\n        /* \"contracts/FundMe.sol\":744:777  addressToAmountFunded[msg.sender] */\n      0xffffffffffffffffffffffffffffffffffffffff\n      and\n      0xffffffffffffffffffffffffffffffffffffffff\n      and\n      dup2\n      mstore\n      0x20\n      add\n      swap1\n      dup2\n      mstore\n      0x20\n      add\n      0x00\n      keccak256\n        /* \"contracts/FundMe.sol\":744:789  addressToAmountFunded[msg.sender] = msg.value */\n      dup2\n      swap1\n      sstore\n      pop\n        /* \"contracts/FundMe.sol\":396:797  function fund() public payable {... */\n      jump\t// out\n        /* \"contracts/FundMe.sol\":305:329  address[] public funders */\n    tag_10:\n      0x01\n      dup2\n      dup2\n      sload\n      dup2\n      lt\n      tag_20\n      jumpi\n      0x00\n      dup1\n      revert\n    tag_20:\n      swap1\n      0x00\n      mstore\n      keccak256(0x00, 0x20)\n      add\n      0x00\n      swap2\n      pop\n      sload\n      swap1\n      0x0100\n      exp\n      swap1\n      div\n      0xffffffffffffffffffffffffffffffffffffffff\n      and\n      dup2\n      jump\t// out\n        /* \"contracts/PriceConverter.sol\":581:802  function getConversionRate(uint256 ethAmount) internal view returns(uint256){... */\n    tag_15:\n        /* \"contracts/PriceConverter.sol\":649:656  uint256 */\n      0x00\n        /* \"contracts/PriceConverter.sol\":668:684  uint256 ethPrice */\n      dup1\n        /* \"contracts/PriceConverter.sol\":687:697  getPrice() */\n      tag_23\n        /* \"contracts/PriceConverter.sol\":687:695  getPrice */\n      tag_24\n        /* \"contracts/PriceConverter.sol\":687:697  getPrice() */\n      jump\t// in\n    tag_23:\n        /* \"contracts/PriceConverter.sol\":668:697  uint256 ethPrice = getPrice() */\n      swap1\n      pop\n        /* \"contracts/PriceConverter.sol\":708:730  uint256 ethAmountInUsd */\n      0x00\n        /* \"contracts/PriceConverter.sol\":758:762  1e18 */\n      0x0de0b6b3a7640000\n        /* \"contracts/PriceConverter.sol\":745:754  ethAmount */\n      dup5\n        /* \"contracts/PriceConverter.sol\":734:742  ethPrice */\n      dup4\n        /* \"contracts/PriceConverter.sol\":734:754  ethPrice * ethAmount */\n      tag_25\n      swap2\n      swap1\n      tag_26\n      jump\t// in\n    tag_25:\n        /* \"contracts/PriceConverter.sol\":733:762  (ethPrice * ethAmount) / 1e18 */\n      tag_27\n      swap2\n      swap1\n      tag_28\n      jump\t// in\n    tag_27:\n        /* \"contracts/PriceConverter.sol\":708:762  uint256 ethAmountInUsd = (ethPrice * ethAmount) / 1e18 */\n      swap1\n      pop\n        /* \"contracts/PriceConverter.sol\":780:794  ethAmountInUsd */\n      dup1\n        /* \"contracts/PriceConverter.sol\":773:794  return ethAmountInUsd */\n      swap3\n      pop\n      pop\n      pop\n        /* \"contracts/PriceConverter.sol\":581:802  function getConversionRate(uint256 ethAmount) internal view returns(uint256){... */\n      swap2\n      swap1\n      pop\n      jump\t// out\n        /* \"contracts/PriceConverter.sol\":172:573  function getPrice() internal view returns(uint256) {... */\n    tag_24:\n        /* \"contracts/PriceConverter.sol\":214:221  uint256 */\n      0x00\n        /* \"contracts/PriceConverter.sol\":314:345  AggregatorV3Interface priceFeed */\n      dup1\n        /* \"contracts/PriceConverter.sol\":370:412  0xD4a33860578De61DBAbDc8BFdb98FD742fA7028e */\n      0xd4a33860578de61dbabdc8bfdb98fd742fa7028e\n        /* \"contracts/PriceConverter.sol\":314:413  AggregatorV3Interface priceFeed = AggregatorV3Interface(0xD4a33860578De61DBAbDc8BFdb98FD742fA7028e) */\n      swap1\n      pop\n        /* \"contracts/PriceConverter.sol\":476:488  int256 price */\n      0x00\n        /* \"contracts/PriceConverter.sol\":495:504  priceFeed */\n      dup2\n        /* \"contracts/PriceConverter.sol\":495:520  priceFeed.latestRoundData */\n      0xffffffffffffffffffffffffffffffffffffffff\n      and\n      0xfeaf968c\n        /* \"contracts/PriceConverter.sol\":495:522  priceFeed.latestRoundData() */\n      mload(0x40)\n      dup2\n      0xffffffff\n      and\n      0xe0\n      shl\n      dup2\n      mstore\n      0x04\n      add\n      0xa0\n      mload(0x40)\n      dup1\n      dup4\n      sub\n      dup2\n      dup7\n      gas\n      staticcall\n      iszero\n      dup1\n      iszero\n      tag_31\n      jumpi\n      returndatasize\n      0x00\n      dup1\n      returndatacopy\n      revert(0x00, returndatasize)\n    tag_31:\n      pop\n      pop\n      pop\n      pop\n      mload(0x40)\n      returndatasize\n      not(0x1f)\n      0x1f\n      dup3\n      add\n      and\n      dup3\n      add\n      dup1\n      0x40\n      mstore\n      pop\n      dup2\n      add\n      swap1\n      tag_32\n      swap2\n      swap1\n      tag_33\n      jump\t// in\n    tag_32:\n        /* \"contracts/PriceConverter.sol\":474:522  (,int256 price,,,) = priceFeed.latestRoundData() */\n      pop\n      pop\n      pop\n      swap2\n      pop\n      pop\n        /* \"contracts/PriceConverter.sol\":558:562  1e10 */\n      0x02540be400\n        /* \"contracts/PriceConverter.sol\":550:555  price */\n      dup2\n        /* \"contracts/PriceConverter.sol\":550:562  price * 1e10 */\n      tag_34\n      swap2\n      swap1\n      tag_35\n      jump\t// in\n    tag_34:\n        /* \"contracts/PriceConverter.sol\":535:563  return uint256(price * 1e10) */\n      swap3\n      pop\n      pop\n      pop\n        /* \"contracts/PriceConverter.sol\":172:573  function getPrice() internal view returns(uint256) {... */\n      swap1\n      jump\t// out\n        /* \"#utility.yul\":88:205   */\n    tag_37:\n        /* \"#utility.yul\":197:198   */\n      0x00\n        /* \"#utility.yul\":194:195   */\n      dup1\n        /* \"#utility.yul\":187:199   */\n      revert\n        /* \"#utility.yul\":334:411   */\n    tag_39:\n        /* \"#utility.yul\":371:378   */\n      0x00\n        /* \"#utility.yul\":400:405   */\n      dup2\n        /* \"#utility.yul\":389:405   */\n      swap1\n      pop\n        /* \"#utility.yul\":334:411   */\n      swap2\n      swap1\n      pop\n      jump\t// out\n        /* \"#utility.yul\":417:539   */\n    tag_40:\n        /* \"#utility.yul\":490:514   */\n      tag_63\n        /* \"#utility.yul\":508:513   */\n      dup2\n        /* \"#utility.yul\":490:514   */\n      tag_39\n      jump\t// in\n    tag_63:\n        /* \"#utility.yul\":483:488   */\n      dup2\n        /* \"#utility.yul\":480:515   */\n      eq\n        /* \"#utility.yul\":470:533   */\n      tag_64\n      jumpi\n        /* \"#utility.yul\":529:530   */\n      0x00\n        /* \"#utility.yul\":526:527   */\n      dup1\n        /* \"#utility.yul\":519:531   */\n      revert\n        /* \"#utility.yul\":470:533   */\n    tag_64:\n        /* \"#utility.yul\":417:539   */\n      pop\n      jump\t// out\n        /* \"#utility.yul\":545:684   */\n    tag_41:\n        /* \"#utility.yul\":591:596   */\n      0x00\n        /* \"#utility.yul\":629:635   */\n      dup2\n        /* \"#utility.yul\":616:636   */\n      calldataload\n        /* \"#utility.yul\":607:636   */\n      swap1\n      pop\n        /* \"#utility.yul\":645:678   */\n      tag_66\n        /* \"#utility.yul\":672:677   */\n      dup2\n        /* \"#utility.yul\":645:678   */\n      tag_40\n      jump\t// in\n    tag_66:\n        /* \"#utility.yul\":545:684   */\n      swap3\n      swap2\n      pop\n      pop\n      jump\t// out\n        /* \"#utility.yul\":690:1019   */\n    tag_9:\n        /* \"#utility.yul\":749:755   */\n      0x00\n        /* \"#utility.yul\":798:800   */\n      0x20\n        /* \"#utility.yul\":786:795   */\n      dup3\n        /* \"#utility.yul\":777:784   */\n      dup5\n        /* \"#utility.yul\":773:796   */\n      sub\n        /* \"#utility.yul\":769:801   */\n      slt\n        /* \"#utility.yul\":766:885   */\n      iszero\n      tag_68\n      jumpi\n        /* \"#utility.yul\":804:883   */\n      tag_69\n      tag_37\n      jump\t// in\n    tag_69:\n        /* \"#utility.yul\":766:885   */\n    tag_68:\n        /* \"#utility.yul\":924:925   */\n      0x00\n        /* \"#utility.yul\":949:1002   */\n      tag_70\n        /* \"#utility.yul\":994:1001   */\n      dup5\n        /* \"#utility.yul\":985:991   */\n      dup3\n        /* \"#utility.yul\":974:983   */\n      dup6\n        /* \"#utility.yul\":970:992   */\n      add\n        /* \"#utility.yul\":949:1002   */\n      tag_41\n      jump\t// in\n    tag_70:\n        /* \"#utility.yul\":939:1002   */\n      swap2\n      pop\n        /* \"#utility.yul\":895:1012   */\n      pop\n        /* \"#utility.yul\":690:1019   */\n      swap3\n      swap2\n      pop\n      pop\n      jump\t// out\n        /* \"#utility.yul\":1025:1151   */\n    tag_42:\n        /* \"#utility.yul\":1062:1069   */\n      0x00\n        /* \"#utility.yul\":1102:1144   */\n      0xffffffffffffffffffffffffffffffffffffffff\n        /* \"#utility.yul\":1095:1100   */\n      dup3\n        /* \"#utility.yul\":1091:1145   */\n      and\n        /* \"#utility.yul\":1080:1145   */\n      swap1\n      pop\n        /* \"#utility.yul\":1025:1151   */\n      swap2\n      swap1\n      pop\n      jump\t// out\n        /* \"#utility.yul\":1157:1253   */\n    tag_43:\n        /* \"#utility.yul\":1194:1201   */\n      0x00\n        /* \"#utility.yul\":1223:1247   */\n      tag_73\n        /* \"#utility.yul\":1241:1246   */\n      dup3\n        /* \"#utility.yul\":1223:1247   */\n      tag_42\n      jump\t// in\n    tag_73:\n        /* \"#utility.yul\":1212:1247   */\n      swap1\n      pop\n        /* \"#utility.yul\":1157:1253   */\n      swap2\n      swap1\n      pop\n      jump\t// out\n        /* \"#utility.yul\":1259:1377   */\n    tag_44:\n        /* \"#utility.yul\":1346:1370   */\n      tag_75\n        /* \"#utility.yul\":1364:1369   */\n      dup2\n        /* \"#utility.yul\":1346:1370   */\n      tag_43\n      jump\t// in\n    tag_75:\n        /* \"#utility.yul\":1341:1344   */\n      dup3\n        /* \"#utility.yul\":1334:1371   */\n      mstore\n        /* \"#utility.yul\":1259:1377   */\n      pop\n      pop\n      jump\t// out\n        /* \"#utility.yul\":1383:1605   */\n    tag_12:\n        /* \"#utility.yul\":1476:1480   */\n      0x00\n        /* \"#utility.yul\":1514:1516   */\n      0x20\n        /* \"#utility.yul\":1503:1512   */\n      dup3\n        /* \"#utility.yul\":1499:1517   */\n      add\n        /* \"#utility.yul\":1491:1517   */\n      swap1\n      pop\n        /* \"#utility.yul\":1527:1598   */\n      tag_77\n        /* \"#utility.yul\":1595:1596   */\n      0x00\n        /* \"#utility.yul\":1584:1593   */\n      dup4\n        /* \"#utility.yul\":1580:1597   */\n      add\n        /* \"#utility.yul\":1571:1577   */\n      dup5\n        /* \"#utility.yul\":1527:1598   */\n      tag_44\n      jump\t// in\n    tag_77:\n        /* \"#utility.yul\":1383:1605   */\n      swap3\n      swap2\n      pop\n      pop\n      jump\t// out\n        /* \"#utility.yul\":1611:1780   */\n    tag_45:\n        /* \"#utility.yul\":1695:1706   */\n      0x00\n        /* \"#utility.yul\":1729:1735   */\n      dup3\n        /* \"#utility.yul\":1724:1727   */\n      dup3\n        /* \"#utility.yul\":1717:1736   */\n      mstore\n        /* \"#utility.yul\":1769:1773   */\n      0x20\n        /* \"#utility.yul\":1764:1767   */\n      dup3\n        /* \"#utility.yul\":1760:1774   */\n      add\n        /* \"#utility.yul\":1745:1774   */\n      swap1\n      pop\n        /* \"#utility.yul\":1611:1780   */\n      swap3\n      swap2\n      pop\n      pop\n      jump\t// out\n        /* \"#utility.yul\":1786:1958   */\n    tag_46:\n        /* \"#utility.yul\":1926:1950   */\n      0x4469646e27742073656e6420656e6f7567682045544800000000000000000000\n        /* \"#utility.yul\":1922:1923   */\n      0x00\n        /* \"#utility.yul\":1914:1920   */\n      dup3\n        /* \"#utility.yul\":1910:1924   */\n      add\n        /* \"#utility.yul\":1903:1951   */\n      mstore\n        /* \"#utility.yul\":1786:1958   */\n      pop\n      jump\t// out\n        /* \"#utility.yul\":1964:2330   */\n    tag_47:\n        /* \"#utility.yul\":2106:2109   */\n      0x00\n        /* \"#utility.yul\":2127:2194   */\n      tag_81\n        /* \"#utility.yul\":2191:2193   */\n      0x16\n        /* \"#utility.yul\":2186:2189   */\n      dup4\n        /* \"#utility.yul\":2127:2194   */\n      tag_45\n      jump\t// in\n    tag_81:\n        /* \"#utility.yul\":2120:2194   */\n      swap2\n      pop\n        /* \"#utility.yul\":2203:2296   */\n      tag_82\n        /* \"#utility.yul\":2292:2295   */\n      dup3\n        /* \"#utility.yul\":2203:2296   */\n      tag_46\n      jump\t// in\n    tag_82:\n        /* \"#utility.yul\":2321:2323   */\n      0x20\n        /* \"#utility.yul\":2316:2319   */\n      dup3\n        /* \"#utility.yul\":2312:2324   */\n      add\n        /* \"#utility.yul\":2305:2324   */\n      swap1\n      pop\n        /* \"#utility.yul\":1964:2330   */\n      swap2\n      swap1\n      pop\n      jump\t// out\n        /* \"#utility.yul\":2336:2755   */\n    tag_18:\n        /* \"#utility.yul\":2502:2506   */\n      0x00\n        /* \"#utility.yul\":2540:2542   */\n      0x20\n        /* \"#utility.yul\":2529:2538   */\n      dup3\n        /* \"#utility.yul\":2525:2543   */\n      add\n        /* \"#utility.yul\":2517:2543   */\n      swap1\n      pop\n        /* \"#utility.yul\":2589:2598   */\n      dup2\n        /* \"#utility.yul\":2583:2587   */\n      dup2\n        /* \"#utility.yul\":2579:2599   */\n      sub\n        /* \"#utility.yul\":2575:2576   */\n      0x00\n        /* \"#utility.yul\":2564:2573   */\n      dup4\n        /* \"#utility.yul\":2560:2577   */\n      add\n        /* \"#utility.yul\":2553:2600   */\n      mstore\n        /* \"#utility.yul\":2617:2748   */\n      tag_84\n        /* \"#utility.yul\":2743:2747   */\n      dup2\n        /* \"#utility.yul\":2617:2748   */\n      tag_47\n      jump\t// in\n    tag_84:\n        /* \"#utility.yul\":2609:2748   */\n      swap1\n      pop\n        /* \"#utility.yul\":2336:2755   */\n      swap2\n      swap1\n      pop\n      jump\t// out\n        /* \"#utility.yul\":2761:2941   */\n    tag_48:\n        /* \"#utility.yul\":2809:2886   */\n      0x4e487b7100000000000000000000000000000000000000000000000000000000\n        /* \"#utility.yul\":2806:2807   */\n      0x00\n        /* \"#utility.yul\":2799:2887   */\n      mstore\n        /* \"#utility.yul\":2906:2910   */\n      0x11\n        /* \"#utility.yul\":2903:2904   */\n      0x04\n        /* \"#utility.yul\":2896:2911   */\n      mstore\n        /* \"#utility.yul\":2930:2934   */\n      0x24\n        /* \"#utility.yul\":2927:2928   */\n      0x00\n        /* \"#utility.yul\":2920:2935   */\n      revert\n        /* \"#utility.yul\":2947:3357   */\n    tag_26:\n        /* \"#utility.yul\":2987:2994   */\n      0x00\n        /* \"#utility.yul\":3010:3030   */\n      tag_87\n        /* \"#utility.yul\":3028:3029   */\n      dup3\n        /* \"#utility.yul\":3010:3030   */\n      tag_39\n      jump\t// in\n    tag_87:\n        /* \"#utility.yul\":3005:3030   */\n      swap2\n      pop\n        /* \"#utility.yul\":3044:3064   */\n      tag_88\n        /* \"#utility.yul\":3062:3063   */\n      dup4\n        /* \"#utility.yul\":3044:3064   */\n      tag_39\n      jump\t// in\n    tag_88:\n        /* \"#utility.yul\":3039:3064   */\n      swap3\n      pop\n        /* \"#utility.yul\":3099:3100   */\n      dup3\n        /* \"#utility.yul\":3096:3097   */\n      dup3\n        /* \"#utility.yul\":3092:3101   */\n      mul\n        /* \"#utility.yul\":3121:3151   */\n      tag_89\n        /* \"#utility.yul\":3139:3150   */\n      dup2\n        /* \"#utility.yul\":3121:3151   */\n      tag_39\n      jump\t// in\n    tag_89:\n        /* \"#utility.yul\":3110:3151   */\n      swap2\n      pop\n        /* \"#utility.yul\":3300:3301   */\n      dup3\n        /* \"#utility.yul\":3291:3298   */\n      dup3\n        /* \"#utility.yul\":3287:3302   */\n      div\n        /* \"#utility.yul\":3284:3285   */\n      dup5\n        /* \"#utility.yul\":3281:3303   */\n      eq\n        /* \"#utility.yul\":3261:3262   */\n      dup4\n        /* \"#utility.yul\":3254:3263   */\n      iszero\n        /* \"#utility.yul\":3234:3317   */\n      or\n        /* \"#utility.yul\":3211:3350   */\n      tag_90\n      jumpi\n        /* \"#utility.yul\":3330:3348   */\n      tag_91\n      tag_48\n      jump\t// in\n    tag_91:\n        /* \"#utility.yul\":3211:3350   */\n    tag_90:\n        /* \"#utility.yul\":2995:3357   */\n      pop\n        /* \"#utility.yul\":2947:3357   */\n      swap3\n      swap2\n      pop\n      pop\n      jump\t// out\n        /* \"#utility.yul\":3363:3543   */\n    tag_49:\n        /* \"#utility.yul\":3411:3488   */\n      0x4e487b7100000000000000000000000000000000000000000000000000000000\n        /* \"#utility.yul\":3408:3409   */\n      0x00\n        /* \"#utility.yul\":3401:3489   */\n      mstore\n        /* \"#utility.yul\":3508:3512   */\n      0x12\n        /* \"#utility.yul\":3505:3506   */\n      0x04\n        /* \"#utility.yul\":3498:3513   */\n      mstore\n        /* \"#utility.yul\":3532:3536   */\n      0x24\n        /* \"#utility.yul\":3529:3530   */\n      0x00\n        /* \"#utility.yul\":3522:3537   */\n      revert\n        /* \"#utility.yul\":3549:3734   */\n    tag_28:\n        /* \"#utility.yul\":3589:3590   */\n      0x00\n        /* \"#utility.yul\":3606:3626   */\n      tag_94\n        /* \"#utility.yul\":3624:3625   */\n      dup3\n        /* \"#utility.yul\":3606:3626   */\n      tag_39\n      jump\t// in\n    tag_94:\n        /* \"#utility.yul\":3601:3626   */\n      swap2\n      pop\n        /* \"#utility.yul\":3640:3660   */\n      tag_95\n        /* \"#utility.yul\":3658:3659   */\n      dup4\n        /* \"#utility.yul\":3640:3660   */\n      tag_39\n      jump\t// in\n    tag_95:\n        /* \"#utility.yul\":3635:3660   */\n      swap3\n      pop\n        /* \"#utility.yul\":3679:3680   */\n      dup3\n        /* \"#utility.yul\":3669:3704   */\n      tag_96\n      jumpi\n        /* \"#utility.yul\":3684:3702   */\n      tag_97\n      tag_49\n      jump\t// in\n    tag_97:\n        /* \"#utility.yul\":3669:3704   */\n    tag_96:\n        /* \"#utility.yul\":3726:3727   */\n      dup3\n        /* \"#utility.yul\":3723:3724   */\n      dup3\n        /* \"#utility.yul\":3719:3728   */\n      div\n        /* \"#utility.yul\":3714:3728   */\n      swap1\n      pop\n        /* \"#utility.yul\":3549:3734   */\n      swap3\n      swap2\n      pop\n      pop\n      jump\t// out\n        /* \"#utility.yul\":3740:3845   */\n    tag_50:\n        /* \"#utility.yul\":3776:3783   */\n      0x00\n        /* \"#utility.yul\":3816:3838   */\n      0xffffffffffffffffffff\n        /* \"#utility.yul\":3809:3814   */\n      dup3\n        /* \"#utility.yul\":3805:3839   */\n      and\n        /* \"#utility.yul\":3794:3839   */\n      swap1\n      pop\n        /* \"#utility.yul\":3740:3845   */\n      swap2\n      swap1\n      pop\n      jump\t// out\n        /* \"#utility.yul\":3851:3971   */\n    tag_51:\n        /* \"#utility.yul\":3923:3946   */\n      tag_100\n        /* \"#utility.yul\":3940:3945   */\n      dup2\n        /* \"#utility.yul\":3923:3946   */\n      tag_50\n      jump\t// in\n    tag_100:\n        /* \"#utility.yul\":3916:3921   */\n      dup2\n        /* \"#utility.yul\":3913:3947   */\n      eq\n        /* \"#utility.yul\":3903:3965   */\n      tag_101\n      jumpi\n        /* \"#utility.yul\":3961:3962   */\n      0x00\n        /* \"#utility.yul\":3958:3959   */\n      dup1\n        /* \"#utility.yul\":3951:3963   */\n      revert\n        /* \"#utility.yul\":3903:3965   */\n    tag_101:\n        /* \"#utility.yul\":3851:3971   */\n      pop\n      jump\t// out\n        /* \"#utility.yul\":3977:4118   */\n    tag_52:\n        /* \"#utility.yul\":4033:4038   */\n      0x00\n        /* \"#utility.yul\":4064:4070   */\n      dup2\n        /* \"#utility.yul\":4058:4071   */\n      mload\n        /* \"#utility.yul\":4049:4071   */\n      swap1\n      pop\n        /* \"#utility.yul\":4080:4112   */\n      tag_103\n        /* \"#utility.yul\":4106:4111   */\n      dup2\n        /* \"#utility.yul\":4080:4112   */\n      tag_51\n      jump\t// in\n    tag_103:\n        /* \"#utility.yul\":3977:4118   */\n      swap3\n      swap2\n      pop\n      pop\n      jump\t// out\n        /* \"#utility.yul\":4124:4200   */\n    tag_53:\n        /* \"#utility.yul\":4160:4167   */\n      0x00\n        /* \"#utility.yul\":4189:4194   */\n      dup2\n        /* \"#utility.yul\":4178:4194   */\n      swap1\n      pop\n        /* \"#utility.yul\":4124:4200   */\n      swap2\n      swap1\n      pop\n      jump\t// out\n        /* \"#utility.yul\":4206:4326   */\n    tag_54:\n        /* \"#utility.yul\":4278:4301   */\n      tag_106\n        /* \"#utility.yul\":4295:4300   */\n      dup2\n        /* \"#utility.yul\":4278:4301   */\n      tag_53\n      jump\t// in\n    tag_106:\n        /* \"#utility.yul\":4271:4276   */\n      dup2\n        /* \"#utility.yul\":4268:4302   */\n      eq\n        /* \"#utility.yul\":4258:4320   */\n      tag_107\n      jumpi\n        /* \"#utility.yul\":4316:4317   */\n      0x00\n        /* \"#utility.yul\":4313:4314   */\n      dup1\n        /* \"#utility.yul\":4306:4318   */\n      revert\n        /* \"#utility.yul\":4258:4320   */\n    tag_107:\n        /* \"#utility.yul\":4206:4326   */\n      pop\n      jump\t// out\n        /* \"#utility.yul\":4332:4473   */\n    tag_55:\n        /* \"#utility.yul\":4388:4393   */\n      0x00\n        /* \"#utility.yul\":4419:4425   */\n      dup2\n        /* \"#utility.yul\":4413:4426   */\n      mload\n        /* \"#utility.yul\":4404:4426   */\n      swap1\n      pop\n        /* \"#utility.yul\":4435:4467   */\n      tag_109\n        /* \"#utility.yul\":4461:4466   */\n      dup2\n        /* \"#utility.yul\":4435:4467   */\n      tag_54\n      jump\t// in\n    tag_109:\n        /* \"#utility.yul\":4332:4473   */\n      swap3\n      swap2\n      pop\n      pop\n      jump\t// out\n        /* \"#utility.yul\":4479:4622   */\n    tag_56:\n        /* \"#utility.yul\":4536:4541   */\n      0x00\n        /* \"#utility.yul\":4567:4573   */\n      dup2\n        /* \"#utility.yul\":4561:4574   */\n      mload\n        /* \"#utility.yul\":4552:4574   */\n      swap1\n      pop\n        /* \"#utility.yul\":4583:4616   */\n      tag_111\n        /* \"#utility.yul\":4610:4615   */\n      dup2\n        /* \"#utility.yul\":4583:4616   */\n      tag_40\n      jump\t// in\n    tag_111:\n        /* \"#utility.yul\":4479:4622   */\n      swap3\n      swap2\n      pop\n      pop\n      jump\t// out\n        /* \"#utility.yul\":4628:5599   */\n    tag_33:\n        /* \"#utility.yul\":4731:4737   */\n      0x00\n        /* \"#utility.yul\":4739:4745   */\n      dup1\n        /* \"#utility.yul\":4747:4753   */\n      0x00\n        /* \"#utility.yul\":4755:4761   */\n      dup1\n        /* \"#utility.yul\":4763:4769   */\n      0x00\n        /* \"#utility.yul\":4812:4815   */\n      0xa0\n        /* \"#utility.yul\":4800:4809   */\n      dup7\n        /* \"#utility.yul\":4791:4798   */\n      dup9\n        /* \"#utility.yul\":4787:4810   */\n      sub\n        /* \"#utility.yul\":4783:4816   */\n      slt\n        /* \"#utility.yul\":4780:4900   */\n      iszero\n      tag_113\n      jumpi\n        /* \"#utility.yul\":4819:4898   */\n      tag_114\n      tag_37\n      jump\t// in\n    tag_114:\n        /* \"#utility.yul\":4780:4900   */\n    tag_113:\n        /* \"#utility.yul\":4939:4940   */\n      0x00\n        /* \"#utility.yul\":4964:5027   */\n      tag_115\n        /* \"#utility.yul\":5019:5026   */\n      dup9\n        /* \"#utility.yul\":5010:5016   */\n      dup3\n        /* \"#utility.yul\":4999:5008   */\n      dup10\n        /* \"#utility.yul\":4995:5017   */\n      add\n        /* \"#utility.yul\":4964:5027   */\n      tag_52\n      jump\t// in\n    tag_115:\n        /* \"#utility.yul\":4954:5027   */\n      swap6\n      pop\n        /* \"#utility.yul\":4910:5037   */\n      pop\n        /* \"#utility.yul\":5076:5078   */\n      0x20\n        /* \"#utility.yul\":5102:5165   */\n      tag_116\n        /* \"#utility.yul\":5157:5164   */\n      dup9\n        /* \"#utility.yul\":5148:5154   */\n      dup3\n        /* \"#utility.yul\":5137:5146   */\n      dup10\n        /* \"#utility.yul\":5133:5155   */\n      add\n        /* \"#utility.yul\":5102:5165   */\n      tag_55\n      jump\t// in\n    tag_116:\n        /* \"#utility.yul\":5092:5165   */\n      swap5\n      pop\n        /* \"#utility.yul\":5047:5175   */\n      pop\n        /* \"#utility.yul\":5214:5216   */\n      0x40\n        /* \"#utility.yul\":5240:5304   */\n      tag_117\n        /* \"#utility.yul\":5296:5303   */\n      dup9\n        /* \"#utility.yul\":5287:5293   */\n      dup3\n        /* \"#utility.yul\":5276:5285   */\n      dup10\n        /* \"#utility.yul\":5272:5294   */\n      add\n        /* \"#utility.yul\":5240:5304   */\n      tag_56\n      jump\t// in\n    tag_117:\n        /* \"#utility.yul\":5230:5304   */\n      swap4\n      pop\n        /* \"#utility.yul\":5185:5314   */\n      pop\n        /* \"#utility.yul\":5353:5355   */\n      0x60\n        /* \"#utility.yul\":5379:5443   */\n      tag_118\n        /* \"#utility.yul\":5435:5442   */\n      dup9\n        /* \"#utility.yul\":5426:5432   */\n      dup3\n        /* \"#utility.yul\":5415:5424   */\n      dup10\n        /* \"#utility.yul\":5411:5433   */\n      add\n        /* \"#utility.yul\":5379:5443   */\n      tag_56\n      jump\t// in\n    tag_118:\n        /* \"#utility.yul\":5369:5443   */\n      swap3\n      pop\n        /* \"#utility.yul\":5324:5453   */\n      pop\n        /* \"#utility.yul\":5492:5495   */\n      0x80\n        /* \"#utility.yul\":5519:5582   */\n      tag_119\n        /* \"#utility.yul\":5574:5581   */\n      dup9\n        /* \"#utility.yul\":5565:5571   */\n      dup3\n        /* \"#utility.yul\":5554:5563   */\n      dup10\n        /* \"#utility.yul\":5550:5572   */\n      add\n        /* \"#utility.yul\":5519:5582   */\n      tag_52\n      jump\t// in\n    tag_119:\n        /* \"#utility.yul\":5509:5582   */\n      swap2\n      pop\n        /* \"#utility.yul\":5463:5592   */\n      pop\n        /* \"#utility.yul\":4628:5599   */\n      swap3\n      swap6\n      pop\n      swap3\n      swap6\n      swap1\n      swap4\n      pop\n      jump\t// out\n        /* \"#utility.yul\":5605:6161   */\n    tag_35:\n        /* \"#utility.yul\":5644:5651   */\n      0x00\n        /* \"#utility.yul\":5667:5686   */\n      tag_121\n        /* \"#utility.yul\":5684:5685   */\n      dup3\n        /* \"#utility.yul\":5667:5686   */\n      tag_53\n      jump\t// in\n    tag_121:\n        /* \"#utility.yul\":5662:5686   */\n      swap2\n      pop\n        /* \"#utility.yul\":5700:5719   */\n      tag_122\n        /* \"#utility.yul\":5717:5718   */\n      dup4\n        /* \"#utility.yul\":5700:5719   */\n      tag_53\n      jump\t// in\n    tag_122:\n        /* \"#utility.yul\":5695:5719   */\n      swap3\n      pop\n        /* \"#utility.yul\":5754:5755   */\n      dup3\n        /* \"#utility.yul\":5751:5752   */\n      dup3\n        /* \"#utility.yul\":5747:5756   */\n      mul\n        /* \"#utility.yul\":5776:5805   */\n      tag_123\n        /* \"#utility.yul\":5793:5804   */\n      dup2\n        /* \"#utility.yul\":5776:5805   */\n      tag_53\n      jump\t// in\n    tag_123:\n        /* \"#utility.yul\":5765:5805   */\n      swap2\n      pop\n        /* \"#utility.yul\":5863:5929   */\n      0x8000000000000000000000000000000000000000000000000000000000000000\n        /* \"#utility.yul\":5860:5861   */\n      dup5\n        /* \"#utility.yul\":5857:5930   */\n      eq\n        /* \"#utility.yul\":5853:5854   */\n      0x00\n        /* \"#utility.yul\":5850:5851   */\n      dup5\n        /* \"#utility.yul\":5846:5855   */\n      slt\n        /* \"#utility.yul\":5842:5931   */\n      and\n        /* \"#utility.yul\":5839:5954   */\n      iszero\n      tag_124\n      jumpi\n        /* \"#utility.yul\":5934:5952   */\n      tag_125\n      tag_48\n      jump\t// in\n    tag_125:\n        /* \"#utility.yul\":5839:5954   */\n    tag_124:\n        /* \"#utility.yul\":6104:6105   */\n      dup3\n        /* \"#utility.yul\":6095:6102   */\n      dup3\n        /* \"#utility.yul\":6090:6106   */\n      sdiv\n        /* \"#utility.yul\":6087:6088   */\n      dup5\n        /* \"#utility.yul\":6084:6107   */\n      eq\n        /* \"#utility.yul\":6064:6065   */\n      dup4\n        /* \"#utility.yul\":6057:6066   */\n      iszero\n        /* \"#utility.yul\":6037:6121   */\n      or\n        /* \"#utility.yul\":6014:6154   */\n      tag_126\n      jumpi\n        /* \"#utility.yul\":6134:6152   */\n      tag_127\n      tag_48\n      jump\t// in\n    tag_127:\n        /* \"#utility.yul\":6014:6154   */\n    tag_126:\n        /* \"#utility.yul\":5652:6161   */\n      pop\n        /* \"#utility.yul\":5605:6161   */\n      swap3\n      swap2\n      pop\n      pop\n      jump\t// out\n\n    auxdata: 0xa2646970667358221220cbe5c8f5c6a0e25012bd791e9a9f4f2309876f8e6b64bc26e50e6c452f631fe364736f6c63430008110033\n}\n",
				"bytecode": {
					"linkReferences": {},
					"object": "60806040526802b5e3af16b188000060005534801561001d57600080fd5b506106548061002d6000396000f3fe6080604052600436106100295760003560e01c8063b60d42881461002e578063dc0d3dff14610038575b600080fd5b610036610075565b005b34801561004457600080fd5b5061005f600480360381019061005a91906102c7565b61016a565b60405161006c9190610335565b60405180910390f35b600054610081346101a9565b116100c1576040517f08c379a00000000000000000000000000000000000000000000000000000000081526004016100b8906103ad565b60405180910390fd5b6001339080600181540180825580915050600190039060005260206000200160009091909190916101000a81548173ffffffffffffffffffffffffffffffffffffffff021916908373ffffffffffffffffffffffffffffffffffffffff16021790555034600260003373ffffffffffffffffffffffffffffffffffffffff1673ffffffffffffffffffffffffffffffffffffffff16815260200190815260200160002081905550565b6001818154811061017a57600080fd5b906000526020600020016000915054906101000a900473ffffffffffffffffffffffffffffffffffffffff1681565b6000806101b46101e3565b90506000670de0b6b3a764000084836101cd91906103fc565b6101d7919061046d565b90508092505050919050565b60008073d4a33860578de61dbabdc8bfdb98fd742fa7028e905060008173ffffffffffffffffffffffffffffffffffffffff1663feaf968c6040518163ffffffff1660e01b815260040160a060405180830381865afa15801561024a573d6000803e3d6000fd5b505050506040513d601f19601f8201168201806040525081019061026e919061052b565b5050509150506402540be4008161028591906105a6565b9250505090565b600080fd5b6000819050919050565b6102a481610291565b81146102af57600080fd5b50565b6000813590506102c18161029b565b92915050565b6000602082840312156102dd576102dc61028c565b5b60006102eb848285016102b2565b91505092915050565b600073ffffffffffffffffffffffffffffffffffffffff82169050919050565b600061031f826102f4565b9050919050565b61032f81610314565b82525050565b600060208201905061034a6000830184610326565b92915050565b600082825260208201905092915050565b7f4469646e27742073656e6420656e6f7567682045544800000000000000000000600082015250565b6000610397601683610350565b91506103a282610361565b602082019050919050565b600060208201905081810360008301526103c68161038a565b9050919050565b7f4e487b7100000000000000000000000000000000000000000000000000000000600052601160045260246000fd5b600061040782610291565b915061041283610291565b925082820261042081610291565b91508282048414831517610437576104366103cd565b5b5092915050565b7f4e487b7100000000000000000000000000000000000000000000000000000000600052601260045260246000fd5b600061047882610291565b915061048383610291565b9250826104935761049261043e565b5b828204905092915050565b600069ffffffffffffffffffff82169050919050565b6104bd8161049e565b81146104c857600080fd5b50565b6000815190506104da816104b4565b92915050565b6000819050919050565b6104f3816104e0565b81146104fe57600080fd5b50565b600081519050610510816104ea565b92915050565b6000815190506105258161029b565b92915050565b600080600080600060a086880312156105475761054661028c565b5b6000610555888289016104cb565b955050602061056688828901610501565b945050604061057788828901610516565b935050606061058888828901610516565b9250506080610599888289016104cb565b9150509295509295909350565b60006105b1826104e0565b91506105bc836104e0565b92508282026105ca816104e0565b91507f80000000000000000000000000000000000000000000000000000000000000008414600084121615610602576106016103cd565b5b8282058414831517610617576106166103cd565b5b509291505056fea2646970667358221220cbe5c8f5c6a0e25012bd791e9a9f4f2309876f8e6b64bc26e50e6c452f631fe364736f6c63430008110033",
					"opcodes": "PUSH1 0x80 PUSH1 0x40 MSTORE PUSH9 0x2B5E3AF16B1880000 PUSH1 0x0 SSTORE CALLVALUE DUP1 ISZERO PUSH2 0x1D JUMPI PUSH1 0x0 DUP1 REVERT JUMPDEST POP PUSH2 0x654 DUP1 PUSH2 0x2D PUSH1 0x0 CODECOPY PUSH1 0x0 RETURN INVALID PUSH1 0x80 PUSH1 0x40 MSTORE PUSH1 0x4 CALLDATASIZE LT PUSH2 0x29 JUMPI PUSH1 0x0 CALLDATALOAD PUSH1 0xE0 SHR DUP1 PUSH4 0xB60D4288 EQ PUSH2 0x2E JUMPI DUP1 PUSH4 0xDC0D3DFF EQ PUSH2 0x38 JUMPI JUMPDEST PUSH1 0x0 DUP1 REVERT JUMPDEST PUSH2 0x36 PUSH2 0x75 JUMP JUMPDEST STOP JUMPDEST CALLVALUE DUP1 ISZERO PUSH2 0x44 JUMPI PUSH1 0x0 DUP1 REVERT JUMPDEST POP PUSH2 0x5F PUSH1 0x4 DUP1 CALLDATASIZE SUB DUP2 ADD SWAP1 PUSH2 0x5A SWAP2 SWAP1 PUSH2 0x2C7 JUMP JUMPDEST PUSH2 0x16A JUMP JUMPDEST PUSH1 0x40 MLOAD PUSH2 0x6C SWAP2 SWAP1 PUSH2 0x335 JUMP JUMPDEST PUSH1 0x40 MLOAD DUP1 SWAP2 SUB SWAP1 RETURN JUMPDEST PUSH1 0x0 SLOAD PUSH2 0x81 CALLVALUE PUSH2 0x1A9 JUMP JUMPDEST GT PUSH2 0xC1 JUMPI PUSH1 0x40 MLOAD PUSH32 0x8C379A000000000000000000000000000000000000000000000000000000000 DUP2 MSTORE PUSH1 0x4 ADD PUSH2 0xB8 SWAP1 PUSH2 0x3AD JUMP JUMPDEST PUSH1 0x40 MLOAD DUP1 SWAP2 SUB SWAP1 REVERT JUMPDEST PUSH1 0x1 CALLER SWAP1 DUP1 PUSH1 0x1 DUP2 SLOAD ADD DUP1 DUP3 SSTORE DUP1 SWAP2 POP POP PUSH1 0x1 SWAP1 SUB SWAP1 PUSH1 0x0 MSTORE PUSH1 0x20 PUSH1 0x0 KECCAK256 ADD PUSH1 0x0 SWAP1 SWAP2 SWAP1 SWAP2 SWAP1 SWAP2 PUSH2 0x100 EXP DUP2 SLOAD DUP2 PUSH20 0xFFFFFFFFFFFFFFFFFFFFFFFFFFFFFFFFFFFFFFFF MUL NOT AND SWAP1 DUP4 PUSH20 0xFFFFFFFFFFFFFFFFFFFFFFFFFFFFFFFFFFFFFFFF AND MUL OR SWAP1 SSTORE POP CALLVALUE PUSH1 0x2 PUSH1 0x0 CALLER PUSH20 0xFFFFFFFFFFFFFFFFFFFFFFFFFFFFFFFFFFFFFFFF AND PUSH20 0xFFFFFFFFFFFFFFFFFFFFFFFFFFFFFFFFFFFFFFFF AND DUP2 MSTORE PUSH1 0x20 ADD SWAP1 DUP2 MSTORE PUSH1 0x20 ADD PUSH1 0x0 KECCAK256 DUP2 SWAP1 SSTORE POP JUMP JUMPDEST PUSH1 0x1 DUP2 DUP2 SLOAD DUP2 LT PUSH2 0x17A JUMPI PUSH1 0x0 DUP1 REVERT JUMPDEST SWAP1 PUSH1 0x0 MSTORE PUSH1 0x20 PUSH1 0x0 KECCAK256 ADD PUSH1 0x0 SWAP2 POP SLOAD SWAP1 PUSH2 0x100 EXP SWAP1 DIV PUSH20 0xFFFFFFFFFFFFFFFFFFFFFFFFFFFFFFFFFFFFFFFF AND DUP2 JUMP JUMPDEST PUSH1 0x0 DUP1 PUSH2 0x1B4 PUSH2 0x1E3 JUMP JUMPDEST SWAP1 POP PUSH1 0x0 PUSH8 0xDE0B6B3A7640000 DUP5 DUP4 PUSH2 0x1CD SWAP2 SWAP1 PUSH2 0x3FC JUMP JUMPDEST PUSH2 0x1D7 SWAP2 SWAP1 PUSH2 0x46D JUMP JUMPDEST SWAP1 POP DUP1 SWAP3 POP POP POP SWAP2 SWAP1 POP JUMP JUMPDEST PUSH1 0x0 DUP1 PUSH20 0xD4A33860578DE61DBABDC8BFDB98FD742FA7028E SWAP1 POP PUSH1 0x0 DUP2 PUSH20 0xFFFFFFFFFFFFFFFFFFFFFFFFFFFFFFFFFFFFFFFF AND PUSH4 0xFEAF968C PUSH1 0x40 MLOAD DUP2 PUSH4 0xFFFFFFFF AND PUSH1 0xE0 SHL DUP2 MSTORE PUSH1 0x4 ADD PUSH1 0xA0 PUSH1 0x40 MLOAD DUP1 DUP4 SUB DUP2 DUP7 GAS STATICCALL ISZERO DUP1 ISZERO PUSH2 0x24A JUMPI RETURNDATASIZE PUSH1 0x0 DUP1 RETURNDATACOPY RETURNDATASIZE PUSH1 0x0 REVERT JUMPDEST POP POP POP POP PUSH1 0x40 MLOAD RETURNDATASIZE PUSH1 0x1F NOT PUSH1 0x1F DUP3 ADD AND DUP3 ADD DUP1 PUSH1 0x40 MSTORE POP DUP2 ADD SWAP1 PUSH2 0x26E SWAP2 SWAP1 PUSH2 0x52B JUMP JUMPDEST POP POP POP SWAP2 POP POP PUSH5 0x2540BE400 DUP2 PUSH2 0x285 SWAP2 SWAP1 PUSH2 0x5A6 JUMP JUMPDEST SWAP3 POP POP POP SWAP1 JUMP JUMPDEST PUSH1 0x0 DUP1 REVERT JUMPDEST PUSH1 0x0 DUP2 SWAP1 POP SWAP2 SWAP1 POP JUMP JUMPDEST PUSH2 0x2A4 DUP2 PUSH2 0x291 JUMP JUMPDEST DUP2 EQ PUSH2 0x2AF JUMPI PUSH1 0x0 DUP1 REVERT JUMPDEST POP JUMP JUMPDEST PUSH1 0x0 DUP2 CALLDATALOAD SWAP1 POP PUSH2 0x2C1 DUP2 PUSH2 0x29B JUMP JUMPDEST SWAP3 SWAP2 POP POP JUMP JUMPDEST PUSH1 0x0 PUSH1 0x20 DUP3 DUP5 SUB SLT ISZERO PUSH2 0x2DD JUMPI PUSH2 0x2DC PUSH2 0x28C JUMP JUMPDEST JUMPDEST PUSH1 0x0 PUSH2 0x2EB DUP5 DUP3 DUP6 ADD PUSH2 0x2B2 JUMP JUMPDEST SWAP2 POP POP SWAP3 SWAP2 POP POP JUMP JUMPDEST PUSH1 0x0 PUSH20 0xFFFFFFFFFFFFFFFFFFFFFFFFFFFFFFFFFFFFFFFF DUP3 AND SWAP1 POP SWAP2 SWAP1 POP JUMP JUMPDEST PUSH1 0x0 PUSH2 0x31F DUP3 PUSH2 0x2F4 JUMP JUMPDEST SWAP1 POP SWAP2 SWAP1 POP JUMP JUMPDEST PUSH2 0x32F DUP2 PUSH2 0x314 JUMP JUMPDEST DUP3 MSTORE POP POP JUMP JUMPDEST PUSH1 0x0 PUSH1 0x20 DUP3 ADD SWAP1 POP PUSH2 0x34A PUSH1 0x0 DUP4 ADD DUP5 PUSH2 0x326 JUMP JUMPDEST SWAP3 SWAP2 POP POP JUMP JUMPDEST PUSH1 0x0 DUP3 DUP3 MSTORE PUSH1 0x20 DUP3 ADD SWAP1 POP SWAP3 SWAP2 POP POP JUMP JUMPDEST PUSH32 0x4469646E27742073656E6420656E6F7567682045544800000000000000000000 PUSH1 0x0 DUP3 ADD MSTORE POP JUMP JUMPDEST PUSH1 0x0 PUSH2 0x397 PUSH1 0x16 DUP4 PUSH2 0x350 JUMP JUMPDEST SWAP2 POP PUSH2 0x3A2 DUP3 PUSH2 0x361 JUMP JUMPDEST PUSH1 0x20 DUP3 ADD SWAP1 POP SWAP2 SWAP1 POP JUMP JUMPDEST PUSH1 0x0 PUSH1 0x20 DUP3 ADD SWAP1 POP DUP2 DUP2 SUB PUSH1 0x0 DUP4 ADD MSTORE PUSH2 0x3C6 DUP2 PUSH2 0x38A JUMP JUMPDEST SWAP1 POP SWAP2 SWAP1 POP JUMP JUMPDEST PUSH32 0x4E487B7100000000000000000000000000000000000000000000000000000000 PUSH1 0x0 MSTORE PUSH1 0x11 PUSH1 0x4 MSTORE PUSH1 0x24 PUSH1 0x0 REVERT JUMPDEST PUSH1 0x0 PUSH2 0x407 DUP3 PUSH2 0x291 JUMP JUMPDEST SWAP2 POP PUSH2 0x412 DUP4 PUSH2 0x291 JUMP JUMPDEST SWAP3 POP DUP3 DUP3 MUL PUSH2 0x420 DUP2 PUSH2 0x291 JUMP JUMPDEST SWAP2 POP DUP3 DUP3 DIV DUP5 EQ DUP4 ISZERO OR PUSH2 0x437 JUMPI PUSH2 0x436 PUSH2 0x3CD JUMP JUMPDEST JUMPDEST POP SWAP3 SWAP2 POP POP JUMP JUMPDEST PUSH32 0x4E487B7100000000000000000000000000000000000000000000000000000000 PUSH1 0x0 MSTORE PUSH1 0x12 PUSH1 0x4 MSTORE PUSH1 0x24 PUSH1 0x0 REVERT JUMPDEST PUSH1 0x0 PUSH2 0x478 DUP3 PUSH2 0x291 JUMP JUMPDEST SWAP2 POP PUSH2 0x483 DUP4 PUSH2 0x291 JUMP JUMPDEST SWAP3 POP DUP3 PUSH2 0x493 JUMPI PUSH2 0x492 PUSH2 0x43E JUMP JUMPDEST JUMPDEST DUP3 DUP3 DIV SWAP1 POP SWAP3 SWAP2 POP POP JUMP JUMPDEST PUSH1 0x0 PUSH10 0xFFFFFFFFFFFFFFFFFFFF DUP3 AND SWAP1 POP SWAP2 SWAP1 POP JUMP JUMPDEST PUSH2 0x4BD DUP2 PUSH2 0x49E JUMP JUMPDEST DUP2 EQ PUSH2 0x4C8 JUMPI PUSH1 0x0 DUP1 REVERT JUMPDEST POP JUMP JUMPDEST PUSH1 0x0 DUP2 MLOAD SWAP1 POP PUSH2 0x4DA DUP2 PUSH2 0x4B4 JUMP JUMPDEST SWAP3 SWAP2 POP POP JUMP JUMPDEST PUSH1 0x0 DUP2 SWAP1 POP SWAP2 SWAP1 POP JUMP JUMPDEST PUSH2 0x4F3 DUP2 PUSH2 0x4E0 JUMP JUMPDEST DUP2 EQ PUSH2 0x4FE JUMPI PUSH1 0x0 DUP1 REVERT JUMPDEST POP JUMP JUMPDEST PUSH1 0x0 DUP2 MLOAD SWAP1 POP PUSH2 0x510 DUP2 PUSH2 0x4EA JUMP JUMPDEST SWAP3 SWAP2 POP POP JUMP JUMPDEST PUSH1 0x0 DUP2 MLOAD SWAP1 POP PUSH2 0x525 DUP2 PUSH2 0x29B JUMP JUMPDEST SWAP3 SWAP2 POP POP JUMP JUMPDEST PUSH1 0x0 DUP1 PUSH1 0x0 DUP1 PUSH1 0x0 PUSH1 0xA0 DUP7 DUP9 SUB SLT ISZERO PUSH2 0x547 JUMPI PUSH2 0x546 PUSH2 0x28C JUMP JUMPDEST JUMPDEST PUSH1 0x0 PUSH2 0x555 DUP9 DUP3 DUP10 ADD PUSH2 0x4CB JUMP JUMPDEST SWAP6 POP POP PUSH1 0x20 PUSH2 0x566 DUP9 DUP3 DUP10 ADD PUSH2 0x501 JUMP JUMPDEST SWAP5 POP POP PUSH1 0x40 PUSH2 0x577 DUP9 DUP3 DUP10 ADD PUSH2 0x516 JUMP JUMPDEST SWAP4 POP POP PUSH1 0x60 PUSH2 0x588 DUP9 DUP3 DUP10 ADD PUSH2 0x516 JUMP JUMPDEST SWAP3 POP POP PUSH1 0x80 PUSH2 0x599 DUP9 DUP3 DUP10 ADD PUSH2 0x4CB JUMP JUMPDEST SWAP2 POP POP SWAP3 SWAP6 POP SWAP3 SWAP6 SWAP1 SWAP4 POP JUMP JUMPDEST PUSH1 0x0 PUSH2 0x5B1 DUP3 PUSH2 0x4E0 JUMP JUMPDEST SWAP2 POP PUSH2 0x5BC DUP4 PUSH2 0x4E0 JUMP JUMPDEST SWAP3 POP DUP3 DUP3 MUL PUSH2 0x5CA DUP2 PUSH2 0x4E0 JUMP JUMPDEST SWAP2 POP PUSH32 0x8000000000000000000000000000000000000000000000000000000000000000 DUP5 EQ PUSH1 0x0 DUP5 SLT AND ISZERO PUSH2 0x602 JUMPI PUSH2 0x601 PUSH2 0x3CD JUMP JUMPDEST JUMPDEST DUP3 DUP3 SDIV DUP5 EQ DUP4 ISZERO OR PUSH2 0x617 JUMPI PUSH2 0x616 PUSH2 0x3CD JUMP JUMPDEST JUMPDEST POP SWAP3 SWAP2 POP POP JUMP INVALID LOG2 PUSH5 0x6970667358 0x22 SLT KECCAK256 0xCB 0xE5 0xC8 CREATE2 0xC6 LOG0 0xE2 POP SLT 0xBD PUSH26 0x1E9A9F4F2309876F8E6B64BC26E50E6C452F631FE364736F6C63 NUMBER STOP ADDMOD GT STOP CALLER "
				},
				"gasEstimates": {
					"creation": {
						"codeDepositCost": "324000",
						"executionCost": "22468",
						"totalCost": "346468"
					},
					"external": {
						"fund()": "infinite",
						"funders(uint256)": "4956"
					}
				},
				"methodIdentifiers": {
					"fund()": "b60d4288",
					"funders(uint256)": "dc0d3dff"
				}
			},
			"storageLayout": {
				"storage": [
					{
						"astId": 56,
						"contract": "contracts/FundMe.sol:FundMe",
						"label": "minimumUsd",
						"offset": 0,
						"slot": "0",
						"type": "t_uint256"
					},
					{
						"astId": 59,
						"contract": "contracts/FundMe.sol:FundMe",
						"label": "funders",
						"offset": 0,
						"slot": "1",
						"type": "t_array(t_address)dyn_storage"
					},
					{
						"astId": 63,
						"contract": "contracts/FundMe.sol:FundMe",
						"label": "addressToAmountFunded",
						"offset": 0,
						"slot": "2",
						"type": "t_mapping(t_address,t_uint256)"
					}
				],
				"types": {
					"t_address": {
						"encoding": "inplace",
						"label": "address",
						"numberOfBytes": "20"
					},
					"t_array(t_address)dyn_storage": {
						"base": "t_address",
						"encoding": "dynamic_array",
						"label": "address[]",
						"numberOfBytes": "32"
					},
					"t_mapping(t_address,t_uint256)": {
						"encoding": "mapping",
						"key": "t_address",
						"label": "mapping(address => uint256)",
						"numberOfBytes": "32",
						"value": "t_uint256"
					},
					"t_uint256": {
						"encoding": "inplace",
						"label": "uint256",
						"numberOfBytes": "32"
					}
				}
			},
			"userdoc": {
				"kind": "user",
				"methods": {},
				"version": 1
			}
		}
	}
}